{
  "_format": "hh-sol-artifact-1",
  "contractName": "GenesisCollection",
  "sourceName": "contracts/GenesisCollection.sol",
  "abi": [
    {
      "inputs": [
        {
          "internalType": "string",
          "name": "_name",
          "type": "string"
        },
        {
          "internalType": "string",
          "name": "_symbol",
          "type": "string"
        },
        {
          "internalType": "string",
          "name": "_baseUri",
          "type": "string"
        },
        {
          "internalType": "string",
          "name": "_ipfsFolderHash",
          "type": "string"
        },
        {
          "internalType": "address",
          "name": "_libraryAddress",
          "type": "address"
        }
      ],
      "stateMutability": "nonpayable",
      "type": "constructor"
    },
    {
      "anonymous": false,
      "inputs": [
        {
          "indexed": true,
          "internalType": "address",
          "name": "account",
          "type": "address"
        },
        {
          "indexed": true,
          "internalType": "address",
          "name": "operator",
          "type": "address"
        },
        {
          "indexed": false,
          "internalType": "bool",
          "name": "approved",
          "type": "bool"
        }
      ],
      "name": "ApprovalForAll",
      "type": "event"
    },
    {
      "anonymous": false,
      "inputs": [
        {
          "indexed": true,
          "internalType": "address",
          "name": "previousOwner",
          "type": "address"
        },
        {
          "indexed": true,
          "internalType": "address",
          "name": "newOwner",
          "type": "address"
        }
      ],
      "name": "OwnershipTransferred",
      "type": "event"
    },
    {
      "anonymous": false,
      "inputs": [
        {
          "indexed": true,
          "internalType": "address",
          "name": "operator",
          "type": "address"
        },
        {
          "indexed": true,
          "internalType": "address",
          "name": "from",
          "type": "address"
        },
        {
          "indexed": true,
          "internalType": "address",
          "name": "to",
          "type": "address"
        },
        {
          "indexed": false,
          "internalType": "uint256[]",
          "name": "ids",
          "type": "uint256[]"
        },
        {
          "indexed": false,
          "internalType": "uint256[]",
          "name": "values",
          "type": "uint256[]"
        }
      ],
      "name": "TransferBatch",
      "type": "event"
    },
    {
      "anonymous": false,
      "inputs": [
        {
          "indexed": true,
          "internalType": "address",
          "name": "operator",
          "type": "address"
        },
        {
          "indexed": true,
          "internalType": "address",
          "name": "from",
          "type": "address"
        },
        {
          "indexed": true,
          "internalType": "address",
          "name": "to",
          "type": "address"
        },
        {
          "indexed": false,
          "internalType": "uint256",
          "name": "id",
          "type": "uint256"
        },
        {
          "indexed": false,
          "internalType": "uint256",
          "name": "value",
          "type": "uint256"
        }
      ],
      "name": "TransferSingle",
      "type": "event"
    },
    {
      "anonymous": false,
      "inputs": [
        {
          "indexed": false,
          "internalType": "string",
          "name": "value",
          "type": "string"
        },
        {
          "indexed": true,
          "internalType": "uint256",
          "name": "id",
          "type": "uint256"
        }
      ],
      "name": "URI",
      "type": "event"
    },
    {
      "inputs": [
        {
          "internalType": "address",
          "name": "account",
          "type": "address"
        },
        {
          "internalType": "uint256",
          "name": "id",
          "type": "uint256"
        }
      ],
      "name": "balanceOf",
      "outputs": [
        {
          "internalType": "uint256",
          "name": "",
          "type": "uint256"
        }
      ],
      "stateMutability": "view",
      "type": "function"
    },
    {
      "inputs": [
        {
          "internalType": "address[]",
          "name": "accounts",
          "type": "address[]"
        },
        {
          "internalType": "uint256[]",
          "name": "ids",
          "type": "uint256[]"
        }
      ],
      "name": "balanceOfBatch",
      "outputs": [
        {
          "internalType": "uint256[]",
          "name": "",
          "type": "uint256[]"
        }
      ],
      "stateMutability": "view",
      "type": "function"
    },
    {
      "inputs": [],
      "name": "baseUri",
      "outputs": [
        {
          "internalType": "string",
          "name": "",
          "type": "string"
        }
      ],
      "stateMutability": "view",
      "type": "function"
    },
    {
      "inputs": [],
      "name": "ipfsFolderHash",
      "outputs": [
        {
          "internalType": "string",
          "name": "",
          "type": "string"
        }
      ],
      "stateMutability": "view",
      "type": "function"
    },
    {
      "inputs": [
        {
          "internalType": "address",
          "name": "account",
          "type": "address"
        },
        {
          "internalType": "address",
          "name": "operator",
          "type": "address"
        }
      ],
      "name": "isApprovedForAll",
      "outputs": [
        {
          "internalType": "bool",
          "name": "",
          "type": "bool"
        }
      ],
      "stateMutability": "view",
      "type": "function"
    },
    {
      "inputs": [],
      "name": "libraryAddress",
      "outputs": [
        {
          "internalType": "address",
          "name": "",
          "type": "address"
        }
      ],
      "stateMutability": "view",
      "type": "function"
    },
    {
      "inputs": [
        {
          "internalType": "uint256",
          "name": "_amount",
          "type": "uint256"
        }
      ],
      "name": "mint",
      "outputs": [],
      "stateMutability": "nonpayable",
      "type": "function"
    },
    {
      "inputs": [],
      "name": "name",
      "outputs": [
        {
          "internalType": "string",
          "name": "",
          "type": "string"
        }
      ],
      "stateMutability": "view",
      "type": "function"
    },
    {
      "inputs": [],
      "name": "owner",
      "outputs": [
        {
          "internalType": "address",
          "name": "",
          "type": "address"
        }
      ],
      "stateMutability": "view",
      "type": "function"
    },
    {
      "inputs": [],
      "name": "renounceOwnership",
      "outputs": [],
      "stateMutability": "nonpayable",
      "type": "function"
    },
    {
      "inputs": [
        {
          "internalType": "address",
          "name": "from",
          "type": "address"
        },
        {
          "internalType": "address",
          "name": "to",
          "type": "address"
        },
        {
          "internalType": "uint256[]",
          "name": "ids",
          "type": "uint256[]"
        },
        {
          "internalType": "uint256[]",
          "name": "amounts",
          "type": "uint256[]"
        },
        {
          "internalType": "bytes",
          "name": "data",
          "type": "bytes"
        }
      ],
      "name": "safeBatchTransferFrom",
      "outputs": [],
      "stateMutability": "nonpayable",
      "type": "function"
    },
    {
      "inputs": [
        {
          "internalType": "address",
          "name": "from",
          "type": "address"
        },
        {
          "internalType": "address",
          "name": "to",
          "type": "address"
        },
        {
          "internalType": "uint256",
          "name": "id",
          "type": "uint256"
        },
        {
          "internalType": "uint256",
          "name": "amount",
          "type": "uint256"
        },
        {
          "internalType": "bytes",
          "name": "data",
          "type": "bytes"
        }
      ],
      "name": "safeTransferFrom",
      "outputs": [],
      "stateMutability": "nonpayable",
      "type": "function"
    },
    {
      "inputs": [
        {
          "internalType": "address",
          "name": "operator",
          "type": "address"
        },
        {
          "internalType": "bool",
          "name": "approved",
          "type": "bool"
        }
      ],
      "name": "setApprovalForAll",
      "outputs": [],
      "stateMutability": "nonpayable",
      "type": "function"
    },
    {
      "inputs": [
        {
          "internalType": "bytes4",
          "name": "interfaceId",
          "type": "bytes4"
        }
      ],
      "name": "supportsInterface",
      "outputs": [
        {
          "internalType": "bool",
          "name": "",
          "type": "bool"
        }
      ],
      "stateMutability": "view",
      "type": "function"
    },
    {
      "inputs": [],
      "name": "symbol",
      "outputs": [
        {
          "internalType": "string",
          "name": "",
          "type": "string"
        }
      ],
      "stateMutability": "view",
      "type": "function"
    },
    {
      "inputs": [],
      "name": "tokenCount",
      "outputs": [
        {
          "internalType": "uint256",
          "name": "",
          "type": "uint256"
        }
      ],
      "stateMutability": "view",
      "type": "function"
    },
    {
      "inputs": [
        {
          "internalType": "address",
          "name": "newOwner",
          "type": "address"
        }
      ],
      "name": "transferOwnership",
      "outputs": [],
      "stateMutability": "nonpayable",
      "type": "function"
    },
    {
      "inputs": [
        {
          "internalType": "uint256",
          "name": "_tokenId",
          "type": "uint256"
        }
      ],
      "name": "uri",
      "outputs": [
        {
          "internalType": "string",
          "name": "",
          "type": "string"
        }
      ],
      "stateMutability": "view",
      "type": "function"
    }
  ],
  "bytecode": "0x60806040523480156200001157600080fd5b50604051620020e5380380620020e5833981016040819052620000349162000293565b826200004081620000cf565b506200004c33620000e8565b8451620000619060049060208801906200013a565b508351620000779060059060208701906200013a565b5082516200008d9060079060208601906200013a565b508151620000a39060089060208501906200013a565b50600980546001600160a01b0319166001600160a01b039290921691909117905550620003bd92505050565b8051620000e49060029060208401906200013a565b5050565b600380546001600160a01b038381166001600160a01b0319831681179093556040519116919082907f8be0079c531659141344cd1fd0a4f28419497f9722a3daafe3b4186f6b6457e090600090a35050565b82805462000148906200036a565b90600052602060002090601f0160209004810192826200016c5760008555620001b7565b82601f106200018757805160ff1916838001178555620001b7565b82800160010185558215620001b7579182015b82811115620001b75782518255916020019190600101906200019a565b50620001c5929150620001c9565b5090565b5b80821115620001c55760008155600101620001ca565b600082601f830112620001f1578081fd5b81516001600160401b03808211156200020e576200020e620003a7565b604051601f8301601f19908116603f01168101908282118183101715620002395762000239620003a7565b8160405283815260209250868385880101111562000255578485fd5b8491505b8382101562000278578582018301518183018401529082019062000259565b838211156200028957848385830101525b9695505050505050565b600080600080600060a08688031215620002ab578081fd5b85516001600160401b0380821115620002c2578283fd5b620002d089838a01620001e0565b96506020880151915080821115620002e6578283fd5b620002f489838a01620001e0565b955060408801519150808211156200030a578283fd5b6200031889838a01620001e0565b945060608801519150808211156200032e578283fd5b506200033d88828901620001e0565b608088015190935090506001600160a01b03811681146200035c578182fd5b809150509295509295909350565b600181811c908216806200037f57607f821691505b60208210811415620003a157634e487b7160e01b600052602260045260246000fd5b50919050565b634e487b7160e01b600052604160045260246000fd5b611d1880620003cd6000396000f3fe608060405234801561001057600080fd5b50600436106101355760003560e01c80639abc8320116100b2578063b816f51311610081578063f242432a11610066578063f242432a14610296578063f2fde38b146102a9578063fc79d719146102bc57610135565b8063b816f51314610247578063e985e9c51461025a57610135565b80639abc8320146102105780639f181b5e14610218578063a0712d6814610221578063a22cb4651461023457610135565b80632eb2c2d611610109578063715018a6116100ee578063715018a6146101e05780638da5cb5b146101e857806395d89b411461020857610135565b80632eb2c2d6146101ab5780634e1273f4146101c057610135565b8062fdd58e1461013a57806301ffc9a71461016057806306fdde03146101835780630e89341c14610198575b600080fd5b61014d6101483660046116fa565b6102c4565b6040519081526020015b60405180910390f35b61017361016e3660046117ee565b61036d565b6040519015158152602001610157565b61018b6103c1565b6040516101579190611aa0565b61018b6101a6366004611826565b61044f565b6101be6101b93660046115b7565b610486565b005b6101d36101ce366004611723565b610528565b6040516101579190611a5f565b6101be61069e565b6101f0610709565b6040516001600160a01b039091168152602001610157565b61018b610719565b61018b610726565b61014d60065481565b6101be61022f366004611826565b610733565b6101be6102423660046116c0565b6107e5565b6009546101f0906001600160a01b031681565b610173610268366004611585565b6001600160a01b03918216600090815260016020908152604080832093909416825291909152205460ff1690565b6101be6102a436600461165d565b6107f4565b6101be6102b7366004611564565b61088f565b61018b610973565b60006001600160a01b0383166103475760405162461bcd60e51b815260206004820152602b60248201527f455243313135353a2062616c616e636520717565727920666f7220746865207a60448201527f65726f206164647265737300000000000000000000000000000000000000000060648201526084015b60405180910390fd5b506000908152602081815260408083206001600160a01b03949094168352929052205490565b60006001600160e01b03198216636cdb3d1360e11b148061039e57506001600160e01b031982166303a24d0760e21b145b806103b957506301ffc9a760e01b6001600160e01b03198316145b90505b919050565b600480546103ce90611b4a565b80601f01602080910402602001604051908101604052809291908181526020018280546103fa90611b4a565b80156104475780601f1061041c57610100808354040283529160200191610447565b820191906000526020600020905b81548152906001019060200180831161042a57829003601f168201915b505050505081565b60606007600861045e84610980565b6040516020016104709392919061193c565b6040516020818303038152906040529050919050565b6001600160a01b0385163314806104a257506104a28533610268565b6105145760405162461bcd60e51b815260206004820152603260248201527f455243313135353a207472616e736665722063616c6c6572206973206e6f742060448201527f6f776e6572206e6f7220617070726f7665640000000000000000000000000000606482015260840161033e565b6105218585858585610abb565b5050505050565b606081518351146105a15760405162461bcd60e51b815260206004820152602960248201527f455243313135353a206163636f756e747320616e6420696473206c656e67746860448201527f206d69736d617463680000000000000000000000000000000000000000000000606482015260840161033e565b6000835167ffffffffffffffff8111156105cb57634e487b7160e01b600052604160045260246000fd5b6040519080825280602002602001820160405280156105f4578160200160208202803683370190505b50905060005b84518110156106965761065b85828151811061062657634e487b7160e01b600052603260045260246000fd5b602002602001015185838151811061064e57634e487b7160e01b600052603260045260246000fd5b60200260200101516102c4565b82828151811061067b57634e487b7160e01b600052603260045260246000fd5b602090810291909101015261068f81611bb2565b90506105fa565b509392505050565b336106a7610709565b6001600160a01b0316146106fd5760405162461bcd60e51b815260206004820181905260248201527f4f776e61626c653a2063616c6c6572206973206e6f7420746865206f776e6572604482015260640161033e565b6107076000610d4a565b565b6003546001600160a01b03165b90565b600580546103ce90611b4a565b600780546103ce90611b4a565b3361073c610709565b6001600160a01b0316146107925760405162461bcd60e51b815260206004820181905260248201527f4f776e61626c653a2063616c6c6572206973206e6f7420746865206f776e6572604482015260640161033e565b6001600660008282546107a59190611ad7565b925050819055506107c9336006548360405180602001604052806000815250610db4565b6009546107e29033906001600160a01b03166001610ebe565b50565b6107f0338383610ebe565b5050565b6001600160a01b03851633148061081057506108108533610268565b6108825760405162461bcd60e51b815260206004820152602960248201527f455243313135353a2063616c6c6572206973206e6f74206f776e6572206e6f7260448201527f20617070726f7665640000000000000000000000000000000000000000000000606482015260840161033e565b6105218585858585610fb3565b33610898610709565b6001600160a01b0316146108ee5760405162461bcd60e51b815260206004820181905260248201527f4f776e61626c653a2063616c6c6572206973206e6f7420746865206f776e6572604482015260640161033e565b6001600160a01b03811661096a5760405162461bcd60e51b815260206004820152602660248201527f4f776e61626c653a206e6577206f776e657220697320746865207a65726f206160448201527f6464726573730000000000000000000000000000000000000000000000000000606482015260840161033e565b6107e281610d4a565b600880546103ce90611b4a565b6060816109a557506040805180820190915260018152600360fc1b60208201526103bc565b8160005b81156109cf57806109b981611bb2565b91506109c89050600a83611aef565b91506109a9565b60008167ffffffffffffffff8111156109f857634e487b7160e01b600052604160045260246000fd5b6040519080825280601f01601f191660200182016040528015610a22576020820181803683370190505b5090505b8415610ab357610a37600183611b03565b9150610a44600a86611bcd565b610a4f906030611ad7565b60f81b818381518110610a7257634e487b7160e01b600052603260045260246000fd5b60200101907effffffffffffffffffffffffffffffffffffffffffffffffffffffffffffff1916908160001a905350610aac600a86611aef565b9450610a26565b949350505050565b8151835114610b325760405162461bcd60e51b815260206004820152602860248201527f455243313135353a2069647320616e6420616d6f756e7473206c656e6774682060448201527f6d69736d61746368000000000000000000000000000000000000000000000000606482015260840161033e565b6001600160a01b038416610b965760405162461bcd60e51b815260206004820152602560248201527f455243313135353a207472616e7366657220746f20746865207a65726f206164604482015264647265737360d81b606482015260840161033e565b3360005b8451811015610cdc576000858281518110610bc557634e487b7160e01b600052603260045260246000fd5b602002602001015190506000858381518110610bf157634e487b7160e01b600052603260045260246000fd5b602090810291909101810151600084815280835260408082206001600160a01b038e168352909352919091205490915081811015610c845760405162461bcd60e51b815260206004820152602a60248201527f455243313135353a20696e73756666696369656e742062616c616e636520666f60448201526939103a3930b739b332b960b11b606482015260840161033e565b6000838152602081815260408083206001600160a01b038e8116855292528083208585039055908b16825281208054849290610cc1908490611ad7565b9250508190555050505080610cd590611bb2565b9050610b9a565b50846001600160a01b0316866001600160a01b0316826001600160a01b03167f4a39dc06d4c0dbc64b70af90fd698a233a518aa5d07e595d983b8c0526c8f7fb8787604051610d2c929190611a72565b60405180910390a4610d42818787878787611151565b505050505050565b600380546001600160a01b038381167fffffffffffffffffffffffff0000000000000000000000000000000000000000831681179093556040519116919082907f8be0079c531659141344cd1fd0a4f28419497f9722a3daafe3b4186f6b6457e090600090a35050565b6001600160a01b038416610e145760405162461bcd60e51b815260206004820152602160248201527f455243313135353a206d696e7420746f20746865207a65726f206164647265736044820152607360f81b606482015260840161033e565b33610e2e81600087610e2588611306565b61052188611306565b6000848152602081815260408083206001600160a01b038916845290915281208054859290610e5e908490611ad7565b909155505060408051858152602081018590526001600160a01b0380881692600092918516917fc3d58168c5ae7397731d063d5bbf3d657854427343f4c083240f7aacaa2d0f62910160405180910390a46105218160008787878761135f565b816001600160a01b0316836001600160a01b03161415610f465760405162461bcd60e51b815260206004820152602960248201527f455243313135353a2073657474696e6720617070726f76616c2073746174757360448201527f20666f722073656c660000000000000000000000000000000000000000000000606482015260840161033e565b6001600160a01b03838116600081815260016020908152604080832094871680845294825291829020805460ff191686151590811790915591519182527f17307eab39ab6107e8899845ad3d59bd9653f200f220920489ca2b5937696c31910160405180910390a3505050565b6001600160a01b0384166110175760405162461bcd60e51b815260206004820152602560248201527f455243313135353a207472616e7366657220746f20746865207a65726f206164604482015264647265737360d81b606482015260840161033e565b33611027818787610e2588611306565b6000848152602081815260408083206001600160a01b038a168452909152902054838110156110ab5760405162461bcd60e51b815260206004820152602a60248201527f455243313135353a20696e73756666696369656e742062616c616e636520666f60448201526939103a3930b739b332b960b11b606482015260840161033e565b6000858152602081815260408083206001600160a01b038b81168552925280832087850390559088168252812080548692906110e8908490611ad7565b909155505060408051868152602081018690526001600160a01b03808916928a821692918616917fc3d58168c5ae7397731d063d5bbf3d657854427343f4c083240f7aacaa2d0f62910160405180910390a461114882888888888861135f565b50505050505050565b6001600160a01b0384163b15610d425760405163bc197c8160e01b81526001600160a01b0385169063bc197c819061119590899089908890889088906004016119be565b602060405180830381600087803b1580156111af57600080fd5b505af19250505080156111df575060408051601f3d908101601f191682019092526111dc9181019061180a565b60015b611295576111eb611c23565b806308c379a014156112255750611200611c3a565b8061120b5750611227565b8060405162461bcd60e51b815260040161033e9190611aa0565b505b60405162461bcd60e51b815260206004820152603460248201527f455243313135353a207472616e7366657220746f206e6f6e204552433131353560448201527f526563656976657220696d706c656d656e746572000000000000000000000000606482015260840161033e565b6001600160e01b0319811663bc197c8160e01b146111485760405162461bcd60e51b815260206004820152602860248201527f455243313135353a204552433131353552656365697665722072656a656374656044820152676420746f6b656e7360c01b606482015260840161033e565b6040805160018082528183019092526060916000919060208083019080368337019050509050828160008151811061134e57634e487b7160e01b600052603260045260246000fd5b602090810291909101015292915050565b6001600160a01b0384163b15610d425760405163f23a6e6160e01b81526001600160a01b0385169063f23a6e61906113a39089908990889088908890600401611a1c565b602060405180830381600087803b1580156113bd57600080fd5b505af19250505080156113ed575060408051601f3d908101601f191682019092526113ea9181019061180a565b60015b6113f9576111eb611c23565b6001600160e01b0319811663f23a6e6160e01b146111485760405162461bcd60e51b815260206004820152602860248201527f455243313135353a204552433131353552656365697665722072656a656374656044820152676420746f6b656e7360c01b606482015260840161033e565b80356001600160a01b03811681146103bc57600080fd5b600082601f830112611491578081fd5b8135602061149e82611ab3565b6040516114ab8282611b85565b8381528281019150858301600585901b870184018810156114ca578586fd5b855b858110156114e8578135845292840192908401906001016114cc565b5090979650505050505050565b600082601f830112611505578081fd5b813567ffffffffffffffff81111561151f5761151f611c0d565b604051611536601f8301601f191660200182611b85565b81815284602083860101111561154a578283fd5b816020850160208301379081016020019190915292915050565b600060208284031215611575578081fd5b61157e8261146a565b9392505050565b60008060408385031215611597578081fd5b6115a08361146a565b91506115ae6020840161146a565b90509250929050565b600080600080600060a086880312156115ce578081fd5b6115d78661146a565b94506115e56020870161146a565b9350604086013567ffffffffffffffff80821115611601578283fd5b61160d89838a01611481565b94506060880135915080821115611622578283fd5b61162e89838a01611481565b93506080880135915080821115611643578283fd5b50611650888289016114f5565b9150509295509295909350565b600080600080600060a08688031215611674578081fd5b61167d8661146a565b945061168b6020870161146a565b93506040860135925060608601359150608086013567ffffffffffffffff8111156116b4578182fd5b611650888289016114f5565b600080604083850312156116d2578182fd5b6116db8361146a565b9150602083013580151581146116ef578182fd5b809150509250929050565b6000806040838503121561170c578182fd5b6117158361146a565b946020939093013593505050565b60008060408385031215611735578182fd5b823567ffffffffffffffff8082111561174c578384fd5b818501915085601f83011261175f578384fd5b8135602061176c82611ab3565b6040516117798282611b85565b8381528281019150858301600585901b870184018b1015611798578889fd5b8896505b848710156117c1576117ad8161146a565b83526001969096019591830191830161179c565b50965050860135925050808211156117d7578283fd5b506117e485828601611481565b9150509250929050565b6000602082840312156117ff578081fd5b813561157e81611ccc565b60006020828403121561181b578081fd5b815161157e81611ccc565b600060208284031215611837578081fd5b5035919050565b6000815180845260208085019450808401835b8381101561186d57815187529582019590820190600101611851565b509495945050505050565b60008151808452611890816020860160208601611b1a565b601f01601f19169290920160200192915050565b8054600090600181811c90808316806118be57607f831692505b60208084108214156118de57634e487b7160e01b86526022600452602486fd5b8180156118f2576001811461190357611930565b60ff19861689528489019650611930565b60008881526020902060005b868110156119285781548b82015290850190830161190f565b505084890196505b50505050505092915050565b600061195161194b83876118a4565b856118a4565b7f2f626f6f6b5f000000000000000000000000000000000000000000000000000081528351611987816006840160208801611b1a565b7f2e6a736f6e00000000000000000000000000000000000000000000000000000060069290910191820152600b0195945050505050565b60006001600160a01b03808816835280871660208401525060a060408301526119ea60a083018661183e565b82810360608401526119fc818661183e565b90508281036080840152611a108185611878565b98975050505050505050565b60006001600160a01b03808816835280871660208401525084604083015283606083015260a06080830152611a5460a0830184611878565b979650505050505050565b60006020825261157e602083018461183e565b600060408252611a85604083018561183e565b8281036020840152611a97818561183e565b95945050505050565b60006020825261157e6020830184611878565b600067ffffffffffffffff821115611acd57611acd611c0d565b5060051b60200190565b60008219821115611aea57611aea611be1565b500190565b600082611afe57611afe611bf7565b500490565b600082821015611b1557611b15611be1565b500390565b60005b83811015611b35578181015183820152602001611b1d565b83811115611b44576000848401525b50505050565b600181811c90821680611b5e57607f821691505b60208210811415611b7f57634e487b7160e01b600052602260045260246000fd5b50919050565b601f8201601f1916810167ffffffffffffffff81118282101715611bab57611bab611c0d565b6040525050565b6000600019821415611bc657611bc6611be1565b5060010190565b600082611bdc57611bdc611bf7565b500690565b634e487b7160e01b600052601160045260246000fd5b634e487b7160e01b600052601260045260246000fd5b634e487b7160e01b600052604160045260246000fd5b600060033d111561071657600481823e5160e01c90565b600060443d1015611c4a57610716565b6040516003193d81016004833e81513d67ffffffffffffffff8160248401118184111715611c7c575050505050610716565b8285019150815181811115611c9657505050505050610716565b843d8701016020828501011115611cb257505050505050610716565b611cc160208286010187611b85565b509094505050505090565b6001600160e01b0319811681146107e257600080fdfea2646970667358221220b8482363d968bee03f81ab528c9d056ef569fb74b31071e5bd442fc1c8001dba64736f6c63430008030033",
  "linkReferences": {},
  "deployedLinkReferences": {}
}