{
  "_format": "hh-sol-artifact-1",
  "contractName": "Library",
  "sourceName": "contracts/Library.sol",
  "abi": [
    {
      "inputs": [
        {
          "internalType": "uint256",
          "name": "_royaltyFee",
          "type": "uint256"
        }
      ],
      "stateMutability": "nonpayable",
      "type": "constructor"
    },
    {
      "anonymous": false,
      "inputs": [
        {
          "indexed": true,
          "internalType": "uint256",
          "name": "bookId",
          "type": "uint256"
        },
        {
          "indexed": true,
          "internalType": "address",
          "name": "nftContract",
          "type": "address"
        },
        {
          "indexed": true,
          "internalType": "uint256",
          "name": "tokenId",
          "type": "uint256"
        },
        {
          "indexed": false,
          "internalType": "address",
          "name": "seller",
          "type": "address"
        },
        {
          "indexed": false,
          "internalType": "address",
          "name": "owner",
          "type": "address"
        },
        {
          "indexed": false,
          "internalType": "uint256",
          "name": "price",
          "type": "uint256"
        },
        {
          "indexed": false,
          "internalType": "uint256",
          "name": "sales",
          "type": "uint256"
        }
      ],
      "name": "NonFungibleBookCreated",
      "type": "event"
    },
    {
      "anonymous": false,
      "inputs": [
        {
          "indexed": true,
          "internalType": "uint256",
          "name": "bookId",
          "type": "uint256"
        },
        {
          "indexed": true,
          "internalType": "address",
          "name": "nftContract",
          "type": "address"
        },
        {
          "indexed": true,
          "internalType": "uint256",
          "name": "tokenId",
          "type": "uint256"
        },
        {
          "indexed": false,
          "internalType": "uint256",
          "name": "units",
          "type": "uint256"
        },
        {
          "indexed": false,
          "internalType": "address",
          "name": "seller",
          "type": "address"
        },
        {
          "indexed": false,
          "internalType": "address",
          "name": "owner",
          "type": "address"
        },
        {
          "indexed": false,
          "internalType": "uint256",
          "name": "price",
          "type": "uint256"
        },
        {
          "indexed": false,
          "internalType": "uint256",
          "name": "sales",
          "type": "uint256"
        }
      ],
      "name": "SemiFungibleBookCreated",
      "type": "event"
    },
    {
      "inputs": [
        {
          "internalType": "address",
          "name": "nftContract",
          "type": "address"
        },
        {
          "internalType": "uint256",
          "name": "bookId",
          "type": "uint256"
        },
        {
          "internalType": "uint256",
          "name": "amount",
          "type": "uint256"
        }
      ],
      "name": "createLibrarySale",
      "outputs": [],
      "stateMutability": "payable",
      "type": "function"
    },
    {
      "inputs": [
        {
          "internalType": "address",
          "name": "nftContract",
          "type": "address"
        },
        {
          "internalType": "uint256",
          "name": "tokenId",
          "type": "uint256"
        },
        {
          "internalType": "uint256",
          "name": "price",
          "type": "uint256"
        }
      ],
      "name": "createNonFungibleBook",
      "outputs": [],
      "stateMutability": "payable",
      "type": "function"
    },
    {
      "inputs": [
        {
          "internalType": "address",
          "name": "nftContract",
          "type": "address"
        },
        {
          "internalType": "uint256",
          "name": "tokenId",
          "type": "uint256"
        },
        {
          "internalType": "uint256",
          "name": "price",
          "type": "uint256"
        },
        {
          "internalType": "uint256",
          "name": "units",
          "type": "uint256"
        }
      ],
      "name": "createSemiFungibleBook",
      "outputs": [],
      "stateMutability": "payable",
      "type": "function"
    },
    {
      "inputs": [
        {
          "internalType": "uint256",
          "name": "bookId",
          "type": "uint256"
        }
      ],
      "name": "fetchBook",
      "outputs": [
        {
          "components": [
            {
              "internalType": "uint256",
              "name": "bookId",
              "type": "uint256"
            },
            {
              "internalType": "address",
              "name": "nftContract",
              "type": "address"
            },
            {
              "internalType": "uint256",
              "name": "tokenId",
              "type": "uint256"
            },
            {
              "internalType": "uint256",
              "name": "units",
              "type": "uint256"
            },
            {
              "internalType": "address payable",
              "name": "seller",
              "type": "address"
            },
            {
              "internalType": "address payable",
              "name": "owner",
              "type": "address"
            },
            {
              "internalType": "uint256",
              "name": "price",
              "type": "uint256"
            },
            {
              "internalType": "uint256",
              "name": "sales",
              "type": "uint256"
            }
          ],
          "internalType": "struct Library.Book",
          "name": "",
          "type": "tuple"
        }
      ],
      "stateMutability": "view",
      "type": "function"
    },
    {
      "inputs": [],
      "name": "fetchBooks",
      "outputs": [
        {
          "components": [
            {
              "internalType": "uint256",
              "name": "bookId",
              "type": "uint256"
            },
            {
              "internalType": "address",
              "name": "nftContract",
              "type": "address"
            },
            {
              "internalType": "uint256",
              "name": "tokenId",
              "type": "uint256"
            },
            {
              "internalType": "uint256",
              "name": "units",
              "type": "uint256"
            },
            {
              "internalType": "address payable",
              "name": "seller",
              "type": "address"
            },
            {
              "internalType": "address payable",
              "name": "owner",
              "type": "address"
            },
            {
              "internalType": "uint256",
              "name": "price",
              "type": "uint256"
            },
            {
              "internalType": "uint256",
              "name": "sales",
              "type": "uint256"
            }
          ],
          "internalType": "struct Library.Book[]",
          "name": "",
          "type": "tuple[]"
        }
      ],
      "stateMutability": "view",
      "type": "function"
    },
    {
      "inputs": [],
      "name": "fetchBooksCreated",
      "outputs": [
        {
          "components": [
            {
              "internalType": "uint256",
              "name": "bookId",
              "type": "uint256"
            },
            {
              "internalType": "address",
              "name": "nftContract",
              "type": "address"
            },
            {
              "internalType": "uint256",
              "name": "tokenId",
              "type": "uint256"
            },
            {
              "internalType": "uint256",
              "name": "units",
              "type": "uint256"
            },
            {
              "internalType": "address payable",
              "name": "seller",
              "type": "address"
            },
            {
              "internalType": "address payable",
              "name": "owner",
              "type": "address"
            },
            {
              "internalType": "uint256",
              "name": "price",
              "type": "uint256"
            },
            {
              "internalType": "uint256",
              "name": "sales",
              "type": "uint256"
            }
          ],
          "internalType": "struct Library.Book[]",
          "name": "",
          "type": "tuple[]"
        }
      ],
      "stateMutability": "view",
      "type": "function"
    },
    {
      "inputs": [],
      "name": "fetchMyNFTs",
      "outputs": [
        {
          "components": [
            {
              "internalType": "uint256",
              "name": "bookId",
              "type": "uint256"
            },
            {
              "internalType": "address",
              "name": "nftContract",
              "type": "address"
            },
            {
              "internalType": "uint256",
              "name": "tokenId",
              "type": "uint256"
            },
            {
              "internalType": "uint256",
              "name": "units",
              "type": "uint256"
            },
            {
              "internalType": "address payable",
              "name": "seller",
              "type": "address"
            },
            {
              "internalType": "address payable",
              "name": "owner",
              "type": "address"
            },
            {
              "internalType": "uint256",
              "name": "price",
              "type": "uint256"
            },
            {
              "internalType": "uint256",
              "name": "sales",
              "type": "uint256"
            }
          ],
          "internalType": "struct Library.Book[]",
          "name": "",
          "type": "tuple[]"
        }
      ],
      "stateMutability": "view",
      "type": "function"
    },
    {
      "inputs": [
        {
          "internalType": "address",
          "name": "",
          "type": "address"
        },
        {
          "internalType": "address",
          "name": "",
          "type": "address"
        },
        {
          "internalType": "uint256[]",
          "name": "",
          "type": "uint256[]"
        },
        {
          "internalType": "uint256[]",
          "name": "",
          "type": "uint256[]"
        },
        {
          "internalType": "bytes",
          "name": "",
          "type": "bytes"
        }
      ],
      "name": "onERC1155BatchReceived",
      "outputs": [
        {
          "internalType": "bytes4",
          "name": "",
          "type": "bytes4"
        }
      ],
      "stateMutability": "nonpayable",
      "type": "function"
    },
    {
      "inputs": [
        {
          "internalType": "address",
          "name": "",
          "type": "address"
        },
        {
          "internalType": "address",
          "name": "",
          "type": "address"
        },
        {
          "internalType": "uint256",
          "name": "",
          "type": "uint256"
        },
        {
          "internalType": "uint256",
          "name": "",
          "type": "uint256"
        },
        {
          "internalType": "bytes",
          "name": "",
          "type": "bytes"
        }
      ],
      "name": "onERC1155Received",
      "outputs": [
        {
          "internalType": "bytes4",
          "name": "",
          "type": "bytes4"
        }
      ],
      "stateMutability": "nonpayable",
      "type": "function"
    },
    {
      "inputs": [
        {
          "internalType": "address",
          "name": "",
          "type": "address"
        },
        {
          "internalType": "address",
          "name": "",
          "type": "address"
        },
        {
          "internalType": "uint256",
          "name": "",
          "type": "uint256"
        },
        {
          "internalType": "bytes",
          "name": "",
          "type": "bytes"
        }
      ],
      "name": "onERC721Received",
      "outputs": [
        {
          "internalType": "bytes4",
          "name": "",
          "type": "bytes4"
        }
      ],
      "stateMutability": "nonpayable",
      "type": "function"
    },
    {
      "inputs": [
        {
          "internalType": "bytes4",
          "name": "interfaceId",
          "type": "bytes4"
        }
      ],
      "name": "supportsInterface",
      "outputs": [
        {
          "internalType": "bool",
          "name": "",
          "type": "bool"
        }
      ],
      "stateMutability": "view",
      "type": "function"
    }
  ],
  "bytecode": "0x608060405234801561001057600080fd5b506040516117e23803806117e283398101604081905261002f9161004e565b6001600055600480546001600160a01b03191633179055600755610066565b60006020828403121561005f578081fd5b5051919050565b61176d806100756000396000f3fe6080604052600436106100bc5760003560e01c8063497f6e3911610074578063d298308f1161004e578063d298308f146101f0578063f23a6e6114610205578063f349ded914610231576100bc565b8063497f6e3914610184578063a1d49acf14610197578063bc197c81146101c4576100bc565b8063202e3740116100a5578063202e37401461013a5780632d8225b91461015c5780633ffaa04314610171576100bc565b806301ffc9a7146100c1578063150b7a02146100f6575b600080fd5b3480156100cd57600080fd5b506100e16100dc3660046114f2565b610246565b60405190151581526020015b60405180910390f35b34801561010257600080fd5b506101216101113660046113bf565b630a85bd0160e11b949350505050565b6040516001600160e01b031990911681526020016100ed565b34801561014657600080fd5b5061014f61027f565b6040516100ed9190611539565b61016f61016a366004611488565b6104cd565b005b61016f61017f3660046114ba565b61075e565b61016f610192366004611488565b6109f7565b3480156101a357600080fd5b506101b76101b2366004611521565b610cde565b6040516100ed91906115e2565b3480156101d057600080fd5b506101216101df366004611319565b63bc197c8160e01b95945050505050565b3480156101fc57600080fd5b5061014f610dba565b34801561021157600080fd5b50610121610220366004611425565b63f23a6e6160e01b95945050505050565b34801561023d57600080fd5b5061014f610fff565b60006001600160e01b03198216630271189760e51b148061027757506301ffc9a760e01b6001600160e01b03198316145b90505b919050565b6060600061028c60015490565b905060008060005b838110156102ef5733600560006102ac846001611682565b81526020810191909152604001600020600501546001600160a01b031614156102dd576102da600184611682565b92505b806102e7816116f0565b915050610294565b5060008267ffffffffffffffff81111561031957634e487b7160e01b600052604160045260246000fd5b6040519080825280602002602001820160405280156103ad57816020015b61039a6040518061010001604052806000815260200160006001600160a01b03168152602001600081526020016000815260200160006001600160a01b0316815260200160006001600160a01b0316815260200160008152602001600081525090565b8152602001906001900390816103375790505b50905060005b848110156104c45733600560006103cb846001611682565b81526020810191909152604001600020600501546001600160a01b031614156104b25760006103fb826001611682565b6000818152600560208181526040928390208351610100810185528154815260018201546001600160a01b039081169382019390935260028201549481019490945260038101546060850152600481015482166080850152918201541660a0830152600681015460c0830152600781015460e083015285519293509185908790811061049757634e487b7160e01b600052603260045260246000fd5b60209081029190910101526104ad600186611682565b945050505b806104bc816116f0565b9150506103b3565b50935050505090565b600260005414156105255760405162461bcd60e51b815260206004820152601f60248201527f5265656e7472616e637947756172643a207265656e7472616e742063616c6c0060448201526064015b60405180910390fd5b6002600055610538600180546001019055565b600061054360015490565b9050604051806101000160405280828152602001856001600160a01b0316815260200184815260200160018152602001336001600160a01b0316815260200160006001600160a01b031681526020018381526020016000815250600560008381526020019081526020016000206000820151816000015560208201518160010160006101000a8154816001600160a01b0302191690836001600160a01b03160217905550604082015181600201556060820151816003015560808201518160040160006101000a8154816001600160a01b0302191690836001600160a01b0316021790555060a08201518160050160006101000a8154816001600160a01b0302191690836001600160a01b0316021790555060c0820151816006015560e08201518160070155905050836001600160a01b031663b88d4fde3330866040518463ffffffff1660e01b81526004016106ca939291906001600160a01b039384168152919092166020820152604081019190915260806060820181905260009082015260a00190565b600060405180830381600087803b1580156106e457600080fd5b505af11580156106f8573d6000803e3d6000fd5b505060408051338152600060208201819052818301879052606082015290518693506001600160a01b038816925084917f6cd5694ef19d73a4df2cbe362d1e1ac892bfd2653c673c7ae74f212bf9680bcf919081900360800190a4505060016000555050565b600260005414156107b15760405162461bcd60e51b815260206004820152601f60248201527f5265656e7472616e637947756172643a207265656e7472616e742063616c6c00604482015260640161051c565b60026000556107c4600180546001019055565b60006107cf60015490565b9050604051806101000160405280828152602001866001600160a01b03168152602001858152602001838152602001336001600160a01b0316815260200160006001600160a01b031681526020018481526020016000815250600560008381526020019081526020016000206000820151816000015560208201518160010160006101000a8154816001600160a01b0302191690836001600160a01b03160217905550604082015181600201556060820151816003015560808201518160040160006101000a8154816001600160a01b0302191690836001600160a01b0316021790555060a08201518160050160006101000a8154816001600160a01b0302191690836001600160a01b0316021790555060c0820151816006015560e08201518160070155905050846001600160a01b031663f242432a333087866040518563ffffffff1660e01b815260040161095c94939291906001600160a01b0394851681529290931660208301526040820152606081019190915260a06080820181905260009082015260c00190565b600060405180830381600087803b15801561097657600080fd5b505af115801561098a573d6000803e3d6000fd5b505060408051858152336020820152600081830181905260608201889052608082015290518793506001600160a01b038916925084917fb9c486cb1afcdfe587bdab0f0f8f64f81c3061bbca26cbf73e80d9143719b58f919081900360a00190a450506001600055505050565b60026000541415610a4a5760405162461bcd60e51b815260206004820152601f60248201527f5265656e7472616e637947756172643a207265656e7472616e742063616c6c00604482015260640161051c565b600260008181558381526005602052604090206006810154910154610a6f83836116ba565b3414610ae5576040805162461bcd60e51b81526020600482015260248101919091527f506c65617365207375626d6974207468652061736b696e67207072696365206960448201527f6e206f7264657220746f20636f6d706c65746520746865207075726368617365606482015260840161051c565b600084815260056020526040902060030154831115610b465760405162461bcd60e51b815260206004820152601d60248201527f416d6f756e74206e6f7420617661696c61626c6520666f722073616c65000000604482015260640161051c565b8115610bbc576000848152600560205260409020600401546007546001600160a01b03909116906108fc90610b7d9060649061169a565b610b889060016116d9565b610b9290346116ba565b6040518115909202916000818181858888f19350505050158015610bba573d6000803e3d6000fd5b505b604051637921219560e11b8152306004820152336024820152604481018290526064810184905260a06084820152600060a48201526001600160a01b0386169063f242432a9060c401600060405180830381600087803b158015610c1f57600080fd5b505af1158015610c33573d6000803e3d6000fd5b5050506000858152600560208190526040822090810180547fffffffffffffffffffffffff000000000000000000000000000000000000000016331790556007018054869350909190610c87908490611682565b925050819055508260036000828254610ca09190611682565b9091555050600084815260056020526040902060078101546003909101541415610cd257610cd2600280546001019055565b50506001600055505050565b610d416040518061010001604052806000815260200160006001600160a01b03168152602001600081526020016000815260200160006001600160a01b0316815260200160006001600160a01b0316815260200160008152602001600081525090565b506000908152600560208181526040928390208351610100810185528154815260018201546001600160a01b039081169382019390935260028201549481019490945260038101546060850152600481015482166080850152918201541660a0830152600681015460c08301526007015460e082015290565b60606000610dc760015490565b905060008060005b83811015610e2a573360056000610de7846001611682565b81526020810191909152604001600020600401546001600160a01b03161415610e1857610e15600184611682565b92505b80610e22816116f0565b915050610dcf565b5060008267ffffffffffffffff811115610e5457634e487b7160e01b600052604160045260246000fd5b604051908082528060200260200182016040528015610ee857816020015b610ed56040518061010001604052806000815260200160006001600160a01b03168152602001600081526020016000815260200160006001600160a01b0316815260200160006001600160a01b0316815260200160008152602001600081525090565b815260200190600190039081610e725790505b50905060005b848110156104c4573360056000610f06846001611682565b81526020810191909152604001600020600401546001600160a01b03161415610fed576000610f36826001611682565b6000818152600560208181526040928390208351610100810185528154815260018201546001600160a01b039081169382019390935260028201549481019490945260038101546060850152600481015482166080850152918201541660a0830152600681015460c0830152600781015460e0830152855192935091859087908110610fd257634e487b7160e01b600052603260045260246000fd5b6020908102919091010152610fe8600186611682565b945050505b80610ff7816116f0565b915050610eee565b6060600061100c60015490565b9050600061101960025490565b60015461102691906116d9565b90506000808267ffffffffffffffff81111561105257634e487b7160e01b600052604160045260246000fd5b6040519080825280602002602001820160405280156110e657816020015b6110d36040518061010001604052806000815260200160006001600160a01b03168152602001600081526020016000815260200160006001600160a01b0316815260200160006001600160a01b0316815260200160008152602001600081525090565b8152602001906001900390816110705790505b50905060005b848110156104c45760056000611103836001611682565b815260200190815260200160002060070154600560008360016111269190611682565b815260200190815260200160002060030154111561120257600061114b826001611682565b6000818152600560208181526040928390208351610100810185528154815260018201546001600160a01b039081169382019390935260028201549481019490945260038101546060850152600481015482166080850152918201541660a0830152600681015460c0830152600781015460e08301528551929350918590879081106111e757634e487b7160e01b600052603260045260246000fd5b60209081029190910101526111fd600186611682565b945050505b8061120c816116f0565b9150506110ec565b80356001600160a01b038116811461027a57600080fd5b600082601f83011261123b578081fd5b8135602067ffffffffffffffff82111561125757611257611721565b8160051b611266828201611651565b838152828101908684018388018501891015611280578687fd5b8693505b858410156112a2578035835260019390930192918401918401611284565b50979650505050505050565b600082601f8301126112be578081fd5b813567ffffffffffffffff8111156112d8576112d8611721565b6112eb601f8201601f1916602001611651565b8181528460208386010111156112ff578283fd5b816020850160208301379081016020019190915292915050565b600080600080600060a08688031215611330578081fd5b61133986611214565b945061134760208701611214565b9350604086013567ffffffffffffffff80821115611363578283fd5b61136f89838a0161122b565b94506060880135915080821115611384578283fd5b61139089838a0161122b565b935060808801359150808211156113a5578283fd5b506113b2888289016112ae565b9150509295509295909350565b600080600080608085870312156113d4578384fd5b6113dd85611214565b93506113eb60208601611214565b925060408501359150606085013567ffffffffffffffff81111561140d578182fd5b611419878288016112ae565b91505092959194509250565b600080600080600060a0868803121561143c578081fd5b61144586611214565b945061145360208701611214565b93506040860135925060608601359150608086013567ffffffffffffffff81111561147c578182fd5b6113b2888289016112ae565b60008060006060848603121561149c578283fd5b6114a584611214565b95602085013595506040909401359392505050565b600080600080608085870312156114cf578384fd5b6114d885611214565b966020860135965060408601359560600135945092505050565b600060208284031215611503578081fd5b81356001600160e01b03198116811461151a578182fd5b9392505050565b600060208284031215611532578081fd5b5035919050565b6020808252825182820181905260009190848201906040850190845b818110156115d6576115c28385518051825260208101516001600160a01b03808216602085015260408301516040850152606083015160608501528060808401511660808501528060a08401511660a0850152505060c081015160c083015260e081015160e08301525050565b928401926101009290920191600101611555565b50909695505050505050565b610100810161164b82848051825260208101516001600160a01b03808216602085015260408301516040850152606083015160608501528060808401511660808501528060a08401511660a0850152505060c081015160c083015260e081015160e08301525050565b92915050565b604051601f8201601f1916810167ffffffffffffffff8111828210171561167a5761167a611721565b604052919050565b600082198211156116955761169561170b565b500190565b6000826116b557634e487b7160e01b81526012600452602481fd5b500490565b60008160001904831182151516156116d4576116d461170b565b500290565b6000828210156116eb576116eb61170b565b500390565b60006000198214156117045761170461170b565b5060010190565b634e487b7160e01b600052601160045260246000fd5b634e487b7160e01b600052604160045260246000fdfea2646970667358221220a6907a083b5d80d6cddf704a0d71263406583939dc8223ebfc297ee7bdca2fbf64736f6c63430008030033",
  "linkReferences": {},
  "deployedLinkReferences": {}
}