{
  "_format": "hh-sol-artifact-1",
  "contractName": "Library",
  "sourceName": "contracts/Library.sol",
  "abi": [
    {
      "inputs": [
        {
          "internalType": "uint256",
          "name": "_royaltyFee",
          "type": "uint256"
        }
      ],
      "stateMutability": "nonpayable",
      "type": "constructor"
    },
    {
      "anonymous": false,
      "inputs": [
        {
          "indexed": true,
          "internalType": "uint256",
          "name": "bookId",
          "type": "uint256"
        },
        {
          "indexed": true,
          "internalType": "address",
          "name": "nftContract",
          "type": "address"
        },
        {
          "indexed": true,
          "internalType": "uint256",
          "name": "tokenId",
          "type": "uint256"
        },
        {
          "indexed": false,
          "internalType": "address",
          "name": "seller",
          "type": "address"
        },
        {
          "indexed": false,
          "internalType": "address",
          "name": "owner",
          "type": "address"
        },
        {
          "indexed": false,
          "internalType": "uint256",
          "name": "price",
          "type": "uint256"
        },
        {
          "indexed": false,
          "internalType": "uint256",
          "name": "sales",
          "type": "uint256"
        }
      ],
      "name": "NonFungibleBookCreated",
      "type": "event"
    },
    {
      "anonymous": false,
      "inputs": [
        {
          "indexed": true,
          "internalType": "uint256",
          "name": "bookId",
          "type": "uint256"
        },
        {
          "indexed": true,
          "internalType": "address",
          "name": "nftContract",
          "type": "address"
        },
        {
          "indexed": true,
          "internalType": "uint256",
          "name": "tokenId",
          "type": "uint256"
        },
        {
          "indexed": false,
          "internalType": "uint256",
          "name": "units",
          "type": "uint256"
        },
        {
          "indexed": false,
          "internalType": "address",
          "name": "seller",
          "type": "address"
        },
        {
          "indexed": false,
          "internalType": "address",
          "name": "owner",
          "type": "address"
        },
        {
          "indexed": false,
          "internalType": "uint256",
          "name": "price",
          "type": "uint256"
        },
        {
          "indexed": false,
          "internalType": "uint256",
          "name": "sales",
          "type": "uint256"
        }
      ],
      "name": "SemiFungibleBookCreated",
      "type": "event"
    },
    {
      "inputs": [
        {
          "internalType": "address",
          "name": "nftContract",
          "type": "address"
        },
        {
          "internalType": "uint256",
          "name": "bookId",
          "type": "uint256"
        },
        {
          "internalType": "uint256",
          "name": "amount",
          "type": "uint256"
        }
      ],
      "name": "createLibrarySale",
      "outputs": [],
      "stateMutability": "payable",
      "type": "function"
    },
    {
      "inputs": [
        {
          "internalType": "address",
          "name": "nftContract",
          "type": "address"
        },
        {
          "internalType": "uint256",
          "name": "tokenId",
          "type": "uint256"
        },
        {
          "internalType": "uint256",
          "name": "price",
          "type": "uint256"
        }
      ],
      "name": "createNonFungibleBook",
      "outputs": [],
      "stateMutability": "payable",
      "type": "function"
    },
    {
      "inputs": [
        {
          "internalType": "address",
          "name": "nftContract",
          "type": "address"
        },
        {
          "internalType": "uint256",
          "name": "tokenId",
          "type": "uint256"
        },
        {
          "internalType": "uint256",
          "name": "price",
          "type": "uint256"
        },
        {
          "internalType": "uint256",
          "name": "units",
          "type": "uint256"
        }
      ],
      "name": "createSemiFungibleBook",
      "outputs": [],
      "stateMutability": "payable",
      "type": "function"
    },
    {
      "inputs": [],
      "name": "fetchBooks",
      "outputs": [
        {
          "components": [
            {
              "internalType": "uint256",
              "name": "bookId",
              "type": "uint256"
            },
            {
              "internalType": "address",
              "name": "nftContract",
              "type": "address"
            },
            {
              "internalType": "uint256",
              "name": "tokenId",
              "type": "uint256"
            },
            {
              "internalType": "uint256",
              "name": "units",
              "type": "uint256"
            },
            {
              "internalType": "address payable",
              "name": "seller",
              "type": "address"
            },
            {
              "internalType": "address payable",
              "name": "owner",
              "type": "address"
            },
            {
              "internalType": "uint256",
              "name": "price",
              "type": "uint256"
            },
            {
              "internalType": "uint256",
              "name": "sales",
              "type": "uint256"
            }
          ],
          "internalType": "struct Library.Book[]",
          "name": "",
          "type": "tuple[]"
        }
      ],
      "stateMutability": "view",
      "type": "function"
    },
    {
      "inputs": [],
      "name": "fetchBooksCreated",
      "outputs": [
        {
          "components": [
            {
              "internalType": "uint256",
              "name": "bookId",
              "type": "uint256"
            },
            {
              "internalType": "address",
              "name": "nftContract",
              "type": "address"
            },
            {
              "internalType": "uint256",
              "name": "tokenId",
              "type": "uint256"
            },
            {
              "internalType": "uint256",
              "name": "units",
              "type": "uint256"
            },
            {
              "internalType": "address payable",
              "name": "seller",
              "type": "address"
            },
            {
              "internalType": "address payable",
              "name": "owner",
              "type": "address"
            },
            {
              "internalType": "uint256",
              "name": "price",
              "type": "uint256"
            },
            {
              "internalType": "uint256",
              "name": "sales",
              "type": "uint256"
            }
          ],
          "internalType": "struct Library.Book[]",
          "name": "",
          "type": "tuple[]"
        }
      ],
      "stateMutability": "view",
      "type": "function"
    },
    {
      "inputs": [],
      "name": "fetchMyNFTs",
      "outputs": [
        {
          "components": [
            {
              "internalType": "uint256",
              "name": "bookId",
              "type": "uint256"
            },
            {
              "internalType": "address",
              "name": "nftContract",
              "type": "address"
            },
            {
              "internalType": "uint256",
              "name": "tokenId",
              "type": "uint256"
            },
            {
              "internalType": "uint256",
              "name": "units",
              "type": "uint256"
            },
            {
              "internalType": "address payable",
              "name": "seller",
              "type": "address"
            },
            {
              "internalType": "address payable",
              "name": "owner",
              "type": "address"
            },
            {
              "internalType": "uint256",
              "name": "price",
              "type": "uint256"
            },
            {
              "internalType": "uint256",
              "name": "sales",
              "type": "uint256"
            }
          ],
          "internalType": "struct Library.Book[]",
          "name": "",
          "type": "tuple[]"
        }
      ],
      "stateMutability": "view",
      "type": "function"
    },
    {
      "inputs": [
        {
          "internalType": "address",
          "name": "",
          "type": "address"
        },
        {
          "internalType": "address",
          "name": "",
          "type": "address"
        },
        {
          "internalType": "uint256[]",
          "name": "",
          "type": "uint256[]"
        },
        {
          "internalType": "uint256[]",
          "name": "",
          "type": "uint256[]"
        },
        {
          "internalType": "bytes",
          "name": "",
          "type": "bytes"
        }
      ],
      "name": "onERC1155BatchReceived",
      "outputs": [
        {
          "internalType": "bytes4",
          "name": "",
          "type": "bytes4"
        }
      ],
      "stateMutability": "nonpayable",
      "type": "function"
    },
    {
      "inputs": [
        {
          "internalType": "address",
          "name": "",
          "type": "address"
        },
        {
          "internalType": "address",
          "name": "",
          "type": "address"
        },
        {
          "internalType": "uint256",
          "name": "",
          "type": "uint256"
        },
        {
          "internalType": "uint256",
          "name": "",
          "type": "uint256"
        },
        {
          "internalType": "bytes",
          "name": "",
          "type": "bytes"
        }
      ],
      "name": "onERC1155Received",
      "outputs": [
        {
          "internalType": "bytes4",
          "name": "",
          "type": "bytes4"
        }
      ],
      "stateMutability": "nonpayable",
      "type": "function"
    },
    {
      "inputs": [
        {
          "internalType": "address",
          "name": "",
          "type": "address"
        },
        {
          "internalType": "address",
          "name": "",
          "type": "address"
        },
        {
          "internalType": "uint256",
          "name": "",
          "type": "uint256"
        },
        {
          "internalType": "bytes",
          "name": "",
          "type": "bytes"
        }
      ],
      "name": "onERC721Received",
      "outputs": [
        {
          "internalType": "bytes4",
          "name": "",
          "type": "bytes4"
        }
      ],
      "stateMutability": "nonpayable",
      "type": "function"
    },
    {
      "inputs": [
        {
          "internalType": "bytes4",
          "name": "interfaceId",
          "type": "bytes4"
        }
      ],
      "name": "supportsInterface",
      "outputs": [
        {
          "internalType": "bool",
          "name": "",
          "type": "bool"
        }
      ],
      "stateMutability": "view",
      "type": "function"
    }
  ],
  "bytecode": "0x608060405234801561001057600080fd5b5060405161163b38038061163b83398101604081905261002f9161004e565b6001600055600480546001600160a01b03191633179055600755610066565b60006020828403121561005f578081fd5b5051919050565b6115c6806100756000396000f3fe6080604052600436106100b15760003560e01c8063497f6e3911610069578063d298308f1161004e578063d298308f146101b8578063f23a6e61146101cd578063f349ded9146101f9576100b1565b8063497f6e3914610179578063bc197c811461018c576100b1565b8063202e37401161009a578063202e37401461012f5780632d8225b9146101515780633ffaa04314610166576100b1565b806301ffc9a7146100b6578063150b7a02146100eb575b600080fd5b3480156100c257600080fd5b506100d66100d13660046113de565b61020e565b60405190151581526020015b60405180910390f35b3480156100f757600080fd5b506101166101063660046112ab565b630a85bd0160e11b949350505050565b6040516001600160e01b031990911681526020016100e2565b34801561013b57600080fd5b50610144610247565b6040516100e2919061140d565b61016461015f366004611374565b610495565b005b6101646101743660046113a6565b610726565b610164610187366004611374565b6109bf565b34801561019857600080fd5b506101166101a7366004611205565b63bc197c8160e01b95945050505050565b3480156101c457600080fd5b50610144610ca6565b3480156101d957600080fd5b506101166101e8366004611311565b63f23a6e6160e01b95945050505050565b34801561020557600080fd5b50610144610eeb565b60006001600160e01b03198216630271189760e51b148061023f57506301ffc9a760e01b6001600160e01b03198316145b90505b919050565b6060600061025460015490565b905060008060005b838110156102b75733600560006102748460016114db565b81526020810191909152604001600020600501546001600160a01b031614156102a5576102a26001846114db565b92505b806102af81611549565b91505061025c565b5060008267ffffffffffffffff8111156102e157634e487b7160e01b600052604160045260246000fd5b60405190808252806020026020018201604052801561037557816020015b6103626040518061010001604052806000815260200160006001600160a01b03168152602001600081526020016000815260200160006001600160a01b0316815260200160006001600160a01b0316815260200160008152602001600081525090565b8152602001906001900390816102ff5790505b50905060005b8481101561048c5733600560006103938460016114db565b81526020810191909152604001600020600501546001600160a01b0316141561047a5760006103c38260016114db565b6000818152600560208181526040928390208351610100810185528154815260018201546001600160a01b039081169382019390935260028201549481019490945260038101546060850152600481015482166080850152918201541660a0830152600681015460c0830152600781015460e083015285519293509185908790811061045f57634e487b7160e01b600052603260045260246000fd5b60209081029190910101526104756001866114db565b945050505b8061048481611549565b91505061037b565b50935050505090565b600260005414156104ed5760405162461bcd60e51b815260206004820152601f60248201527f5265656e7472616e637947756172643a207265656e7472616e742063616c6c0060448201526064015b60405180910390fd5b6002600055610500600180546001019055565b600061050b60015490565b9050604051806101000160405280828152602001856001600160a01b0316815260200184815260200160018152602001336001600160a01b0316815260200160006001600160a01b031681526020018381526020016000815250600560008381526020019081526020016000206000820151816000015560208201518160010160006101000a8154816001600160a01b0302191690836001600160a01b03160217905550604082015181600201556060820151816003015560808201518160040160006101000a8154816001600160a01b0302191690836001600160a01b0316021790555060a08201518160050160006101000a8154816001600160a01b0302191690836001600160a01b0316021790555060c0820151816006015560e08201518160070155905050836001600160a01b031663b88d4fde3330866040518463ffffffff1660e01b8152600401610692939291906001600160a01b039384168152919092166020820152604081019190915260806060820181905260009082015260a00190565b600060405180830381600087803b1580156106ac57600080fd5b505af11580156106c0573d6000803e3d6000fd5b505060408051338152600060208201819052818301879052606082015290518693506001600160a01b038816925084917f6cd5694ef19d73a4df2cbe362d1e1ac892bfd2653c673c7ae74f212bf9680bcf919081900360800190a4505060016000555050565b600260005414156107795760405162461bcd60e51b815260206004820152601f60248201527f5265656e7472616e637947756172643a207265656e7472616e742063616c6c0060448201526064016104e4565b600260005561078c600180546001019055565b600061079760015490565b9050604051806101000160405280828152602001866001600160a01b03168152602001858152602001838152602001336001600160a01b0316815260200160006001600160a01b031681526020018481526020016000815250600560008381526020019081526020016000206000820151816000015560208201518160010160006101000a8154816001600160a01b0302191690836001600160a01b03160217905550604082015181600201556060820151816003015560808201518160040160006101000a8154816001600160a01b0302191690836001600160a01b0316021790555060a08201518160050160006101000a8154816001600160a01b0302191690836001600160a01b0316021790555060c0820151816006015560e08201518160070155905050846001600160a01b031663f242432a333087866040518563ffffffff1660e01b815260040161092494939291906001600160a01b0394851681529290931660208301526040820152606081019190915260a06080820181905260009082015260c00190565b600060405180830381600087803b15801561093e57600080fd5b505af1158015610952573d6000803e3d6000fd5b505060408051858152336020820152600081830181905260608201889052608082015290518793506001600160a01b038916925084917fb9c486cb1afcdfe587bdab0f0f8f64f81c3061bbca26cbf73e80d9143719b58f919081900360a00190a450506001600055505050565b60026000541415610a125760405162461bcd60e51b815260206004820152601f60248201527f5265656e7472616e637947756172643a207265656e7472616e742063616c6c0060448201526064016104e4565b600260008181558381526005602052604090206006810154910154610a378383611513565b3414610aad576040805162461bcd60e51b81526020600482015260248101919091527f506c65617365207375626d6974207468652061736b696e67207072696365206960448201527f6e206f7264657220746f20636f6d706c6574652074686520707572636861736560648201526084016104e4565b600084815260056020526040902060030154831115610b0e5760405162461bcd60e51b815260206004820152601d60248201527f416d6f756e74206e6f7420617661696c61626c6520666f722073616c6500000060448201526064016104e4565b8115610b84576000848152600560205260409020600401546007546001600160a01b03909116906108fc90610b45906064906114f3565b610b50906001611532565b610b5a9034611513565b6040518115909202916000818181858888f19350505050158015610b82573d6000803e3d6000fd5b505b604051637921219560e11b8152306004820152336024820152604481018290526064810184905260a06084820152600060a48201526001600160a01b0386169063f242432a9060c401600060405180830381600087803b158015610be757600080fd5b505af1158015610bfb573d6000803e3d6000fd5b5050506000858152600560208190526040822090810180547fffffffffffffffffffffffff000000000000000000000000000000000000000016331790556007018054869350909190610c4f9084906114db565b925050819055508260036000828254610c6891906114db565b9091555050600084815260056020526040902060078101546003909101541415610c9a57610c9a600280546001019055565b50506001600055505050565b60606000610cb360015490565b905060008060005b83811015610d16573360056000610cd38460016114db565b81526020810191909152604001600020600401546001600160a01b03161415610d0457610d016001846114db565b92505b80610d0e81611549565b915050610cbb565b5060008267ffffffffffffffff811115610d4057634e487b7160e01b600052604160045260246000fd5b604051908082528060200260200182016040528015610dd457816020015b610dc16040518061010001604052806000815260200160006001600160a01b03168152602001600081526020016000815260200160006001600160a01b0316815260200160006001600160a01b0316815260200160008152602001600081525090565b815260200190600190039081610d5e5790505b50905060005b8481101561048c573360056000610df28460016114db565b81526020810191909152604001600020600401546001600160a01b03161415610ed9576000610e228260016114db565b6000818152600560208181526040928390208351610100810185528154815260018201546001600160a01b039081169382019390935260028201549481019490945260038101546060850152600481015482166080850152918201541660a0830152600681015460c0830152600781015460e0830152855192935091859087908110610ebe57634e487b7160e01b600052603260045260246000fd5b6020908102919091010152610ed46001866114db565b945050505b80610ee381611549565b915050610dda565b60606000610ef860015490565b90506000610f0560025490565b600154610f129190611532565b90506000808267ffffffffffffffff811115610f3e57634e487b7160e01b600052604160045260246000fd5b604051908082528060200260200182016040528015610fd257816020015b610fbf6040518061010001604052806000815260200160006001600160a01b03168152602001600081526020016000815260200160006001600160a01b0316815260200160006001600160a01b0316815260200160008152602001600081525090565b815260200190600190039081610f5c5790505b50905060005b8481101561048c5760056000610fef8360016114db565b8152602001908152602001600020600701546005600083600161101291906114db565b81526020019081526020016000206003015411156110ee5760006110378260016114db565b6000818152600560208181526040928390208351610100810185528154815260018201546001600160a01b039081169382019390935260028201549481019490945260038101546060850152600481015482166080850152918201541660a0830152600681015460c0830152600781015460e08301528551929350918590879081106110d357634e487b7160e01b600052603260045260246000fd5b60209081029190910101526110e96001866114db565b945050505b806110f881611549565b915050610fd8565b80356001600160a01b038116811461024257600080fd5b600082601f830112611127578081fd5b8135602067ffffffffffffffff8211156111435761114361157a565b8160051b6111528282016114aa565b83815282810190868401838801850189101561116c578687fd5b8693505b8584101561118e578035835260019390930192918401918401611170565b50979650505050505050565b600082601f8301126111aa578081fd5b813567ffffffffffffffff8111156111c4576111c461157a565b6111d7601f8201601f19166020016114aa565b8181528460208386010111156111eb578283fd5b816020850160208301379081016020019190915292915050565b600080600080600060a0868803121561121c578081fd5b61122586611100565b945061123360208701611100565b9350604086013567ffffffffffffffff8082111561124f578283fd5b61125b89838a01611117565b94506060880135915080821115611270578283fd5b61127c89838a01611117565b93506080880135915080821115611291578283fd5b5061129e8882890161119a565b9150509295509295909350565b600080600080608085870312156112c0578384fd5b6112c985611100565b93506112d760208601611100565b925060408501359150606085013567ffffffffffffffff8111156112f9578182fd5b6113058782880161119a565b91505092959194509250565b600080600080600060a08688031215611328578081fd5b61133186611100565b945061133f60208701611100565b93506040860135925060608601359150608086013567ffffffffffffffff811115611368578182fd5b61129e8882890161119a565b600080600060608486031215611388578283fd5b61139184611100565b95602085013595506040909401359392505050565b600080600080608085870312156113bb578384fd5b6113c485611100565b966020860135965060408601359560600135945092505050565b6000602082840312156113ef578081fd5b81356001600160e01b031981168114611406578182fd5b9392505050565b602080825282518282018190526000919060409081850190868401855b8281101561149d57815180518552868101516001600160a01b039081168887015286820151878701526060808301519087015260808083015182169087015260a0808301519091169086015260c0808201519086015260e09081015190850152610100909301929085019060010161142a565b5091979650505050505050565b604051601f8201601f1916810167ffffffffffffffff811182821017156114d3576114d361157a565b604052919050565b600082198211156114ee576114ee611564565b500190565b60008261150e57634e487b7160e01b81526012600452602481fd5b500490565b600081600019048311821515161561152d5761152d611564565b500290565b60008282101561154457611544611564565b500390565b600060001982141561155d5761155d611564565b5060010190565b634e487b7160e01b600052601160045260246000fd5b634e487b7160e01b600052604160045260246000fdfea2646970667358221220f1ff4bf9d35df7ef8cea74d989607057b908476b7d232958f71642c28c20549a64736f6c63430008030033",
  "linkReferences": {},
  "deployedLinkReferences": {}
}