{
  "_format": "hh-sol-artifact-1",
  "contractName": "LibraryFactory",
  "sourceName": "contracts/LibraryFactory.sol",
  "abi": [
    {
      "anonymous": false,
      "inputs": [
        {
          "indexed": false,
          "internalType": "address",
          "name": "addr",
          "type": "address"
        },
        {
          "indexed": false,
          "internalType": "uint256",
          "name": "salt",
          "type": "uint256"
        }
      ],
      "name": "Deployed",
      "type": "event"
    },
    {
      "inputs": [
        {
          "internalType": "bytes",
          "name": "libBytecode",
          "type": "bytes"
        },
        {
          "internalType": "string",
          "name": "name",
          "type": "string"
        },
        {
          "internalType": "string",
          "name": "symbol",
          "type": "string"
        },
        {
          "internalType": "string",
          "name": "baseUri",
          "type": "string"
        },
        {
          "internalType": "string",
          "name": "ipfsFolderHash",
          "type": "string"
        },
        {
          "internalType": "uint256",
          "name": "libSalt",
          "type": "uint256"
        },
        {
          "internalType": "uint256",
          "name": "genSalt",
          "type": "uint256"
        }
      ],
      "name": "deploy",
      "outputs": [],
      "stateMutability": "payable",
      "type": "function"
    },
    {
      "inputs": [
        {
          "internalType": "bytes",
          "name": "bytecode",
          "type": "bytes"
        },
        {
          "internalType": "uint256",
          "name": "_salt",
          "type": "uint256"
        }
      ],
      "name": "getAddress",
      "outputs": [
        {
          "internalType": "address",
          "name": "",
          "type": "address"
        }
      ],
      "stateMutability": "view",
      "type": "function"
    },
    {
      "inputs": [
        {
          "internalType": "bytes",
          "name": "hashedBytecode",
          "type": "bytes"
        },
        {
          "internalType": "address",
          "name": "factoryAddy",
          "type": "address"
        },
        {
          "internalType": "uint256",
          "name": "_salt",
          "type": "uint256"
        }
      ],
      "name": "getAddress_",
      "outputs": [
        {
          "internalType": "address",
          "name": "",
          "type": "address"
        }
      ],
      "stateMutability": "view",
      "type": "function"
    },
    {
      "inputs": [
        {
          "internalType": "string",
          "name": "name",
          "type": "string"
        },
        {
          "internalType": "string",
          "name": "symbol",
          "type": "string"
        },
        {
          "internalType": "string",
          "name": "baseUri",
          "type": "string"
        },
        {
          "internalType": "string",
          "name": "ipfsFolderHash",
          "type": "string"
        },
        {
          "internalType": "address",
          "name": "libraryAddress",
          "type": "address"
        }
      ],
      "name": "getGenesisBytecode",
      "outputs": [
        {
          "internalType": "bytes",
          "name": "",
          "type": "bytes"
        }
      ],
      "stateMutability": "pure",
      "type": "function"
    },
    {
      "inputs": [
        {
          "internalType": "uint256",
          "name": "royaltyFee",
          "type": "uint256"
        }
      ],
      "name": "getLibraryBytecode",
      "outputs": [
        {
          "internalType": "bytes",
          "name": "",
          "type": "bytes"
        }
      ],
      "stateMutability": "pure",
      "type": "function"
    }
  ],
  "bytecode": "0x608060405234801561001057600080fd5b50613fd5806100206000396000f3fe608060405260043610620000625760003560e01c806394ca2cb5116200004957806394ca2cb514620000c9578063b4e3696e1462000182578063ff3178b914620001a75762000062565b80632355e05c14620000675780637821554114620000a4575b600080fd5b3480156200007457600080fd5b506200008c62000086366004620006ff565b620001c0565b6040516200009b919062000852565b60405180910390f35b348015620000b157600080fd5b506200008c620000c336600462000637565b62000230565b348015620000d657600080fd5b506200015c620000e8366004620005f0565b8151602092830120604080517fff00000000000000000000000000000000000000000000000000000000000000818601523060601b6bffffffffffffffffffffffff191660218201526035810193909352605580840192909252805180840390920182526075909201909152805191012090565b60405173ffffffffffffffffffffffffffffffffffffffff90911681526020016200009b565b3480156200018f57600080fd5b506200015c620001a1366004620004a6565b62000343565b620001be620001b836600462000501565b62000384565b005b6060600060405180602001620001d690620003d6565b601f1982820381018352601f9091011660408181526020820186905291925082910160408051601f198184030181529082905262000218929160200162000794565b6040516020818303038152906040529150505b919050565b60606000604051806020016200024690620003e4565b6020820181038252601f19601f820116604052509050808760405160200162000270919062000852565b6040516020818303038152906040528760405160200162000292919062000852565b60405160208183030381529060405287604051602001620002b4919062000852565b60405160208183030381529060405287604051602001620002d6919062000852565b60408051601f1981840301815282825273ffffffffffffffffffffffffffffffffffffffff8a166020840152910160408051601f198184030181529082905262000328969594939291602001620007c7565b60405160208183030381529060405291505095945050505050565b60008060ff60f81b84848760405160200162000363949392919062000746565b60408051808303601f19018152919052805160209091012095945050505050565b60008083895160208b016000f59150813b6200039f57600080fd5b6000620003b0898989898762000230565b9050838151602083016000f59150813b620003ca57600080fd5b50505050505050505050565b61163b80620008b883390190565b6120ad8062001ef383390190565b803573ffffffffffffffffffffffffffffffffffffffff811681146200022b57600080fd5b600082601f83011262000428578081fd5b813567ffffffffffffffff80821115620004465762000446620008a1565b604051601f8301601f19908116603f01168101908282118183101715620004715762000471620008a1565b816040528381528660208588010111156200048a578485fd5b8360208701602083013792830160200193909352509392505050565b600080600060608486031215620004bb578283fd5b833567ffffffffffffffff811115620004d2578384fd5b620004e08682870162000417565b935050620004f160208501620003f2565b9150604084013590509250925092565b600080600080600080600060e0888a0312156200051c578283fd5b873567ffffffffffffffff8082111562000534578485fd5b620005428b838c0162000417565b985060208a013591508082111562000558578485fd5b620005668b838c0162000417565b975060408a01359150808211156200057c578485fd5b6200058a8b838c0162000417565b965060608a0135915080821115620005a0578485fd5b620005ae8b838c0162000417565b955060808a0135915080821115620005c4578485fd5b50620005d38a828b0162000417565b93505060a0880135915060c0880135905092959891949750929550565b6000806040838503121562000603578182fd5b823567ffffffffffffffff8111156200061a578283fd5b620006288582860162000417565b95602094909401359450505050565b600080600080600060a086880312156200064f578081fd5b853567ffffffffffffffff8082111562000667578283fd5b6200067589838a0162000417565b965060208801359150808211156200068b578283fd5b6200069989838a0162000417565b95506040880135915080821115620006af578283fd5b620006bd89838a0162000417565b94506060880135915080821115620006d3578283fd5b50620006e28882890162000417565b925050620006f360808701620003f2565b90509295509295909350565b60006020828403121562000711578081fd5b5035919050565b60008151808452620007328160208601602086016200086e565b601f01601f19169290920160200192915050565b600060ff60f81b861682526bffffffffffffffffffffffff198560601b1660018301528360158301528251620007848160358501602087016200086e565b9190910160350195945050505050565b60008351620007a88184602088016200086e565b835190830190620007be8183602088016200086e565b01949350505050565b600087516020620007dc8285838d016200086e565b885191840191620007f18184848d016200086e565b8851920191620008058184848c016200086e565b8751920191620008198184848b016200086e565b86519201916200082d8184848a016200086e565b85519201916200084181848489016200086e565b919091019998505050505050505050565b60006020825262000867602083018462000718565b9392505050565b60005b838110156200088b57818101518382015260200162000871565b838111156200089b576000848401525b50505050565b634e487b7160e01b600052604160045260246000fdfe608060405234801561001057600080fd5b5060405161163b38038061163b83398101604081905261002f9161004e565b6001600055600480546001600160a01b03191633179055600755610066565b60006020828403121561005f578081fd5b5051919050565b6115c6806100756000396000f3fe6080604052600436106100b15760003560e01c8063497f6e3911610069578063d298308f1161004e578063d298308f146101b8578063f23a6e61146101cd578063f349ded9146101f9576100b1565b8063497f6e3914610179578063bc197c811461018c576100b1565b8063202e37401161009a578063202e37401461012f5780632d8225b9146101515780633ffaa04314610166576100b1565b806301ffc9a7146100b6578063150b7a02146100eb575b600080fd5b3480156100c257600080fd5b506100d66100d13660046113de565b61020e565b60405190151581526020015b60405180910390f35b3480156100f757600080fd5b506101166101063660046112ab565b630a85bd0160e11b949350505050565b6040516001600160e01b031990911681526020016100e2565b34801561013b57600080fd5b50610144610247565b6040516100e2919061140d565b61016461015f366004611374565b610495565b005b6101646101743660046113a6565b610726565b610164610187366004611374565b6109bf565b34801561019857600080fd5b506101166101a7366004611205565b63bc197c8160e01b95945050505050565b3480156101c457600080fd5b50610144610ca6565b3480156101d957600080fd5b506101166101e8366004611311565b63f23a6e6160e01b95945050505050565b34801561020557600080fd5b50610144610eeb565b60006001600160e01b03198216630271189760e51b148061023f57506301ffc9a760e01b6001600160e01b03198316145b90505b919050565b6060600061025460015490565b905060008060005b838110156102b75733600560006102748460016114db565b81526020810191909152604001600020600501546001600160a01b031614156102a5576102a26001846114db565b92505b806102af81611549565b91505061025c565b5060008267ffffffffffffffff8111156102e157634e487b7160e01b600052604160045260246000fd5b60405190808252806020026020018201604052801561037557816020015b6103626040518061010001604052806000815260200160006001600160a01b03168152602001600081526020016000815260200160006001600160a01b0316815260200160006001600160a01b0316815260200160008152602001600081525090565b8152602001906001900390816102ff5790505b50905060005b8481101561048c5733600560006103938460016114db565b81526020810191909152604001600020600501546001600160a01b0316141561047a5760006103c38260016114db565b6000818152600560208181526040928390208351610100810185528154815260018201546001600160a01b039081169382019390935260028201549481019490945260038101546060850152600481015482166080850152918201541660a0830152600681015460c0830152600781015460e083015285519293509185908790811061045f57634e487b7160e01b600052603260045260246000fd5b60209081029190910101526104756001866114db565b945050505b8061048481611549565b91505061037b565b50935050505090565b600260005414156104ed5760405162461bcd60e51b815260206004820152601f60248201527f5265656e7472616e637947756172643a207265656e7472616e742063616c6c0060448201526064015b60405180910390fd5b6002600055610500600180546001019055565b600061050b60015490565b9050604051806101000160405280828152602001856001600160a01b0316815260200184815260200160018152602001336001600160a01b0316815260200160006001600160a01b031681526020018381526020016000815250600560008381526020019081526020016000206000820151816000015560208201518160010160006101000a8154816001600160a01b0302191690836001600160a01b03160217905550604082015181600201556060820151816003015560808201518160040160006101000a8154816001600160a01b0302191690836001600160a01b0316021790555060a08201518160050160006101000a8154816001600160a01b0302191690836001600160a01b0316021790555060c0820151816006015560e08201518160070155905050836001600160a01b031663b88d4fde3330866040518463ffffffff1660e01b8152600401610692939291906001600160a01b039384168152919092166020820152604081019190915260806060820181905260009082015260a00190565b600060405180830381600087803b1580156106ac57600080fd5b505af11580156106c0573d6000803e3d6000fd5b505060408051338152600060208201819052818301879052606082015290518693506001600160a01b038816925084917f6cd5694ef19d73a4df2cbe362d1e1ac892bfd2653c673c7ae74f212bf9680bcf919081900360800190a4505060016000555050565b600260005414156107795760405162461bcd60e51b815260206004820152601f60248201527f5265656e7472616e637947756172643a207265656e7472616e742063616c6c0060448201526064016104e4565b600260005561078c600180546001019055565b600061079760015490565b9050604051806101000160405280828152602001866001600160a01b03168152602001858152602001838152602001336001600160a01b0316815260200160006001600160a01b031681526020018481526020016000815250600560008381526020019081526020016000206000820151816000015560208201518160010160006101000a8154816001600160a01b0302191690836001600160a01b03160217905550604082015181600201556060820151816003015560808201518160040160006101000a8154816001600160a01b0302191690836001600160a01b0316021790555060a08201518160050160006101000a8154816001600160a01b0302191690836001600160a01b0316021790555060c0820151816006015560e08201518160070155905050846001600160a01b031663f242432a333087866040518563ffffffff1660e01b815260040161092494939291906001600160a01b0394851681529290931660208301526040820152606081019190915260a06080820181905260009082015260c00190565b600060405180830381600087803b15801561093e57600080fd5b505af1158015610952573d6000803e3d6000fd5b505060408051858152336020820152600081830181905260608201889052608082015290518793506001600160a01b038916925084917fb9c486cb1afcdfe587bdab0f0f8f64f81c3061bbca26cbf73e80d9143719b58f919081900360a00190a450506001600055505050565b60026000541415610a125760405162461bcd60e51b815260206004820152601f60248201527f5265656e7472616e637947756172643a207265656e7472616e742063616c6c0060448201526064016104e4565b600260008181558381526005602052604090206006810154910154610a378383611513565b3414610aad576040805162461bcd60e51b81526020600482015260248101919091527f506c65617365207375626d6974207468652061736b696e67207072696365206960448201527f6e206f7264657220746f20636f6d706c6574652074686520707572636861736560648201526084016104e4565b600084815260056020526040902060030154831115610b0e5760405162461bcd60e51b815260206004820152601d60248201527f416d6f756e74206e6f7420617661696c61626c6520666f722073616c6500000060448201526064016104e4565b8115610b84576000848152600560205260409020600401546007546001600160a01b03909116906108fc90610b45906064906114f3565b610b50906001611532565b610b5a9034611513565b6040518115909202916000818181858888f19350505050158015610b82573d6000803e3d6000fd5b505b604051637921219560e11b8152306004820152336024820152604481018290526064810184905260a06084820152600060a48201526001600160a01b0386169063f242432a9060c401600060405180830381600087803b158015610be757600080fd5b505af1158015610bfb573d6000803e3d6000fd5b5050506000858152600560208190526040822090810180547fffffffffffffffffffffffff000000000000000000000000000000000000000016331790556007018054869350909190610c4f9084906114db565b925050819055508260036000828254610c6891906114db565b9091555050600084815260056020526040902060078101546003909101541415610c9a57610c9a600280546001019055565b50506001600055505050565b60606000610cb360015490565b905060008060005b83811015610d16573360056000610cd38460016114db565b81526020810191909152604001600020600401546001600160a01b03161415610d0457610d016001846114db565b92505b80610d0e81611549565b915050610cbb565b5060008267ffffffffffffffff811115610d4057634e487b7160e01b600052604160045260246000fd5b604051908082528060200260200182016040528015610dd457816020015b610dc16040518061010001604052806000815260200160006001600160a01b03168152602001600081526020016000815260200160006001600160a01b0316815260200160006001600160a01b0316815260200160008152602001600081525090565b815260200190600190039081610d5e5790505b50905060005b8481101561048c573360056000610df28460016114db565b81526020810191909152604001600020600401546001600160a01b03161415610ed9576000610e228260016114db565b6000818152600560208181526040928390208351610100810185528154815260018201546001600160a01b039081169382019390935260028201549481019490945260038101546060850152600481015482166080850152918201541660a0830152600681015460c0830152600781015460e0830152855192935091859087908110610ebe57634e487b7160e01b600052603260045260246000fd5b6020908102919091010152610ed46001866114db565b945050505b80610ee381611549565b915050610dda565b60606000610ef860015490565b90506000610f0560025490565b600154610f129190611532565b90506000808267ffffffffffffffff811115610f3e57634e487b7160e01b600052604160045260246000fd5b604051908082528060200260200182016040528015610fd257816020015b610fbf6040518061010001604052806000815260200160006001600160a01b03168152602001600081526020016000815260200160006001600160a01b0316815260200160006001600160a01b0316815260200160008152602001600081525090565b815260200190600190039081610f5c5790505b50905060005b8481101561048c5760056000610fef8360016114db565b8152602001908152602001600020600701546005600083600161101291906114db565b81526020019081526020016000206003015411156110ee5760006110378260016114db565b6000818152600560208181526040928390208351610100810185528154815260018201546001600160a01b039081169382019390935260028201549481019490945260038101546060850152600481015482166080850152918201541660a0830152600681015460c0830152600781015460e08301528551929350918590879081106110d357634e487b7160e01b600052603260045260246000fd5b60209081029190910101526110e96001866114db565b945050505b806110f881611549565b915050610fd8565b80356001600160a01b038116811461024257600080fd5b600082601f830112611127578081fd5b8135602067ffffffffffffffff8211156111435761114361157a565b8160051b6111528282016114aa565b83815282810190868401838801850189101561116c578687fd5b8693505b8584101561118e578035835260019390930192918401918401611170565b50979650505050505050565b600082601f8301126111aa578081fd5b813567ffffffffffffffff8111156111c4576111c461157a565b6111d7601f8201601f19166020016114aa565b8181528460208386010111156111eb578283fd5b816020850160208301379081016020019190915292915050565b600080600080600060a0868803121561121c578081fd5b61122586611100565b945061123360208701611100565b9350604086013567ffffffffffffffff8082111561124f578283fd5b61125b89838a01611117565b94506060880135915080821115611270578283fd5b61127c89838a01611117565b93506080880135915080821115611291578283fd5b5061129e8882890161119a565b9150509295509295909350565b600080600080608085870312156112c0578384fd5b6112c985611100565b93506112d760208601611100565b925060408501359150606085013567ffffffffffffffff8111156112f9578182fd5b6113058782880161119a565b91505092959194509250565b600080600080600060a08688031215611328578081fd5b61133186611100565b945061133f60208701611100565b93506040860135925060608601359150608086013567ffffffffffffffff811115611368578182fd5b61129e8882890161119a565b600080600060608486031215611388578283fd5b61139184611100565b95602085013595506040909401359392505050565b600080600080608085870312156113bb578384fd5b6113c485611100565b966020860135965060408601359560600135945092505050565b6000602082840312156113ef578081fd5b81356001600160e01b031981168114611406578182fd5b9392505050565b602080825282518282018190526000919060409081850190868401855b8281101561149d57815180518552868101516001600160a01b039081168887015286820151878701526060808301519087015260808083015182169087015260a0808301519091169086015260c0808201519086015260e09081015190850152610100909301929085019060010161142a565b5091979650505050505050565b604051601f8201601f1916810167ffffffffffffffff811182821017156114d3576114d361157a565b604052919050565b600082198211156114ee576114ee611564565b500190565b60008261150e57634e487b7160e01b81526012600452602481fd5b500490565b600081600019048311821515161561152d5761152d611564565b500290565b60008282101561154457611544611564565b500390565b600060001982141561155d5761155d611564565b5060010190565b634e487b7160e01b600052601160045260246000fd5b634e487b7160e01b600052604160045260246000fdfea2646970667358221220f1ff4bf9d35df7ef8cea74d989607057b908476b7d232958f71642c28c20549a64736f6c6343000803003360806040523480156200001157600080fd5b50604051620020ad380380620020ad833981016040819052620000349162000293565b826200004081620000cf565b506200004c33620000e8565b8451620000619060049060208801906200013a565b508351620000779060059060208701906200013a565b5082516200008d9060079060208601906200013a565b508151620000a39060089060208501906200013a565b50600980546001600160a01b0319166001600160a01b039290921691909117905550620003bd92505050565b8051620000e49060029060208401906200013a565b5050565b600380546001600160a01b038381166001600160a01b0319831681179093556040519116919082907f8be0079c531659141344cd1fd0a4f28419497f9722a3daafe3b4186f6b6457e090600090a35050565b82805462000148906200036a565b90600052602060002090601f0160209004810192826200016c5760008555620001b7565b82601f106200018757805160ff1916838001178555620001b7565b82800160010185558215620001b7579182015b82811115620001b75782518255916020019190600101906200019a565b50620001c5929150620001c9565b5090565b5b80821115620001c55760008155600101620001ca565b600082601f830112620001f1578081fd5b81516001600160401b03808211156200020e576200020e620003a7565b604051601f8301601f19908116603f01168101908282118183101715620002395762000239620003a7565b8160405283815260209250868385880101111562000255578485fd5b8491505b8382101562000278578582018301518183018401529082019062000259565b838211156200028957848385830101525b9695505050505050565b600080600080600060a08688031215620002ab578081fd5b85516001600160401b0380821115620002c2578283fd5b620002d089838a01620001e0565b96506020880151915080821115620002e6578283fd5b620002f489838a01620001e0565b955060408801519150808211156200030a578283fd5b6200031889838a01620001e0565b945060608801519150808211156200032e578283fd5b506200033d88828901620001e0565b608088015190935090506001600160a01b03811681146200035c578182fd5b809150509295509295909350565b600181811c908216806200037f57607f821691505b60208210811415620003a157634e487b7160e01b600052602260045260246000fd5b50919050565b634e487b7160e01b600052604160045260246000fd5b611ce080620003cd6000396000f3fe608060405234801561001057600080fd5b50600436106101355760003560e01c80639abc8320116100b2578063b816f51311610081578063f242432a11610066578063f242432a14610296578063f2fde38b146102a9578063fc79d719146102bc57610135565b8063b816f51314610247578063e985e9c51461025a57610135565b80639abc8320146102105780639f181b5e14610218578063a0712d6814610221578063a22cb4651461023457610135565b80632eb2c2d611610109578063715018a6116100ee578063715018a6146101e05780638da5cb5b146101e857806395d89b411461020857610135565b80632eb2c2d6146101ab5780634e1273f4146101c057610135565b8062fdd58e1461013a57806301ffc9a71461016057806306fdde03146101835780630e89341c14610198575b600080fd5b61014d6101483660046116f7565b6102c4565b6040519081526020015b60405180910390f35b61017361016e3660046117eb565b61036d565b6040519015158152602001610157565b61018b6103c1565b6040516101579190611a68565b61018b6101a6366004611823565b61044f565b6101be6101b93660046115b4565b610483565b005b6101d36101ce366004611720565b610525565b6040516101579190611a30565b6101be61069b565b6101f0610706565b6040516001600160a01b039091168152602001610157565b61018b610716565b61018b610723565b61014d60065481565b6101be61022f366004611823565b610730565b6101be6102423660046116bd565b6107e2565b6009546101f0906001600160a01b031681565b610173610268366004611582565b6001600160a01b03918216600090815260016020908152604080832093909416825291909152205460ff1690565b6101be6102a436600461165a565b6107f1565b6101be6102b7366004611561565b61088c565b61018b610970565b60006001600160a01b0383166103475760405162461bcd60e51b815260206004820152602b60248201527f455243313135353a2062616c616e636520717565727920666f7220746865207a60448201527f65726f206164647265737300000000000000000000000000000000000000000060648201526084015b60405180910390fd5b506000908152602081815260408083206001600160a01b03949094168352929052205490565b60006001600160e01b03198216636cdb3d1360e11b148061039e57506001600160e01b031982166303a24d0760e21b145b806103b957506301ffc9a760e01b6001600160e01b03198316145b90505b919050565b600480546103ce90611b12565b80601f01602080910402602001604051908101604052809291908181526020018280546103fa90611b12565b80156104475780601f1061041c57610100808354040283529160200191610447565b820191906000526020600020905b81548152906001019060200180831161042a57829003601f168201915b505050505081565b6060600761045c8361097d565b60405160200161046d9291906118bd565b6040516020818303038152906040529050919050565b6001600160a01b03851633148061049f575061049f8533610268565b6105115760405162461bcd60e51b815260206004820152603260248201527f455243313135353a207472616e736665722063616c6c6572206973206e6f742060448201527f6f776e6572206e6f7220617070726f7665640000000000000000000000000000606482015260840161033e565b61051e8585858585610ab8565b5050505050565b6060815183511461059e5760405162461bcd60e51b815260206004820152602960248201527f455243313135353a206163636f756e747320616e6420696473206c656e67746860448201527f206d69736d617463680000000000000000000000000000000000000000000000606482015260840161033e565b6000835167ffffffffffffffff8111156105c857634e487b7160e01b600052604160045260246000fd5b6040519080825280602002602001820160405280156105f1578160200160208202803683370190505b50905060005b84518110156106935761065885828151811061062357634e487b7160e01b600052603260045260246000fd5b602002602001015185838151811061064b57634e487b7160e01b600052603260045260246000fd5b60200260200101516102c4565b82828151811061067857634e487b7160e01b600052603260045260246000fd5b602090810291909101015261068c81611b7a565b90506105f7565b509392505050565b336106a4610706565b6001600160a01b0316146106fa5760405162461bcd60e51b815260206004820181905260248201527f4f776e61626c653a2063616c6c6572206973206e6f7420746865206f776e6572604482015260640161033e565b6107046000610d47565b565b6003546001600160a01b03165b90565b600580546103ce90611b12565b600780546103ce90611b12565b33610739610706565b6001600160a01b03161461078f5760405162461bcd60e51b815260206004820181905260248201527f4f776e61626c653a2063616c6c6572206973206e6f7420746865206f776e6572604482015260640161033e565b6001600660008282546107a29190611a9f565b925050819055506107c6336006548360405180602001604052806000815250610db1565b6009546107df9033906001600160a01b03166001610ebb565b50565b6107ed338383610ebb565b5050565b6001600160a01b03851633148061080d575061080d8533610268565b61087f5760405162461bcd60e51b815260206004820152602960248201527f455243313135353a2063616c6c6572206973206e6f74206f776e6572206e6f7260448201527f20617070726f7665640000000000000000000000000000000000000000000000606482015260840161033e565b61051e8585858585610fb0565b33610895610706565b6001600160a01b0316146108eb5760405162461bcd60e51b815260206004820181905260248201527f4f776e61626c653a2063616c6c6572206973206e6f7420746865206f776e6572604482015260640161033e565b6001600160a01b0381166109675760405162461bcd60e51b815260206004820152602660248201527f4f776e61626c653a206e6577206f776e657220697320746865207a65726f206160448201527f6464726573730000000000000000000000000000000000000000000000000000606482015260840161033e565b6107df81610d47565b600880546103ce90611b12565b6060816109a257506040805180820190915260018152600360fc1b60208201526103bc565b8160005b81156109cc57806109b681611b7a565b91506109c59050600a83611ab7565b91506109a6565b60008167ffffffffffffffff8111156109f557634e487b7160e01b600052604160045260246000fd5b6040519080825280601f01601f191660200182016040528015610a1f576020820181803683370190505b5090505b8415610ab057610a34600183611acb565b9150610a41600a86611b95565b610a4c906030611a9f565b60f81b818381518110610a6f57634e487b7160e01b600052603260045260246000fd5b60200101907effffffffffffffffffffffffffffffffffffffffffffffffffffffffffffff1916908160001a905350610aa9600a86611ab7565b9450610a23565b949350505050565b8151835114610b2f5760405162461bcd60e51b815260206004820152602860248201527f455243313135353a2069647320616e6420616d6f756e7473206c656e6774682060448201527f6d69736d61746368000000000000000000000000000000000000000000000000606482015260840161033e565b6001600160a01b038416610b935760405162461bcd60e51b815260206004820152602560248201527f455243313135353a207472616e7366657220746f20746865207a65726f206164604482015264647265737360d81b606482015260840161033e565b3360005b8451811015610cd9576000858281518110610bc257634e487b7160e01b600052603260045260246000fd5b602002602001015190506000858381518110610bee57634e487b7160e01b600052603260045260246000fd5b602090810291909101810151600084815280835260408082206001600160a01b038e168352909352919091205490915081811015610c815760405162461bcd60e51b815260206004820152602a60248201527f455243313135353a20696e73756666696369656e742062616c616e636520666f60448201526939103a3930b739b332b960b11b606482015260840161033e565b6000838152602081815260408083206001600160a01b038e8116855292528083208585039055908b16825281208054849290610cbe908490611a9f565b9250508190555050505080610cd290611b7a565b9050610b97565b50846001600160a01b0316866001600160a01b0316826001600160a01b03167f4a39dc06d4c0dbc64b70af90fd698a233a518aa5d07e595d983b8c0526c8f7fb8787604051610d29929190611a43565b60405180910390a4610d3f81878787878761114e565b505050505050565b600380546001600160a01b038381167fffffffffffffffffffffffff0000000000000000000000000000000000000000831681179093556040519116919082907f8be0079c531659141344cd1fd0a4f28419497f9722a3daafe3b4186f6b6457e090600090a35050565b6001600160a01b038416610e115760405162461bcd60e51b815260206004820152602160248201527f455243313135353a206d696e7420746f20746865207a65726f206164647265736044820152607360f81b606482015260840161033e565b33610e2b81600087610e2288611303565b61051e88611303565b6000848152602081815260408083206001600160a01b038916845290915281208054859290610e5b908490611a9f565b909155505060408051858152602081018590526001600160a01b0380881692600092918516917fc3d58168c5ae7397731d063d5bbf3d657854427343f4c083240f7aacaa2d0f62910160405180910390a461051e8160008787878761135c565b816001600160a01b0316836001600160a01b03161415610f435760405162461bcd60e51b815260206004820152602960248201527f455243313135353a2073657474696e6720617070726f76616c2073746174757360448201527f20666f722073656c660000000000000000000000000000000000000000000000606482015260840161033e565b6001600160a01b03838116600081815260016020908152604080832094871680845294825291829020805460ff191686151590811790915591519182527f17307eab39ab6107e8899845ad3d59bd9653f200f220920489ca2b5937696c31910160405180910390a3505050565b6001600160a01b0384166110145760405162461bcd60e51b815260206004820152602560248201527f455243313135353a207472616e7366657220746f20746865207a65726f206164604482015264647265737360d81b606482015260840161033e565b33611024818787610e2288611303565b6000848152602081815260408083206001600160a01b038a168452909152902054838110156110a85760405162461bcd60e51b815260206004820152602a60248201527f455243313135353a20696e73756666696369656e742062616c616e636520666f60448201526939103a3930b739b332b960b11b606482015260840161033e565b6000858152602081815260408083206001600160a01b038b81168552925280832087850390559088168252812080548692906110e5908490611a9f565b909155505060408051868152602081018690526001600160a01b03808916928a821692918616917fc3d58168c5ae7397731d063d5bbf3d657854427343f4c083240f7aacaa2d0f62910160405180910390a461114582888888888861135c565b50505050505050565b6001600160a01b0384163b15610d3f5760405163bc197c8160e01b81526001600160a01b0385169063bc197c8190611192908990899088908890889060040161198f565b602060405180830381600087803b1580156111ac57600080fd5b505af19250505080156111dc575060408051601f3d908101601f191682019092526111d991810190611807565b60015b611292576111e8611beb565b806308c379a0141561122257506111fd611c02565b806112085750611224565b8060405162461bcd60e51b815260040161033e9190611a68565b505b60405162461bcd60e51b815260206004820152603460248201527f455243313135353a207472616e7366657220746f206e6f6e204552433131353560448201527f526563656976657220696d706c656d656e746572000000000000000000000000606482015260840161033e565b6001600160e01b0319811663bc197c8160e01b146111455760405162461bcd60e51b815260206004820152602860248201527f455243313135353a204552433131353552656365697665722072656a656374656044820152676420746f6b656e7360c01b606482015260840161033e565b6040805160018082528183019092526060916000919060208083019080368337019050509050828160008151811061134b57634e487b7160e01b600052603260045260246000fd5b602090810291909101015292915050565b6001600160a01b0384163b15610d3f5760405163f23a6e6160e01b81526001600160a01b0385169063f23a6e61906113a090899089908890889088906004016119ed565b602060405180830381600087803b1580156113ba57600080fd5b505af19250505080156113ea575060408051601f3d908101601f191682019092526113e791810190611807565b60015b6113f6576111e8611beb565b6001600160e01b0319811663f23a6e6160e01b146111455760405162461bcd60e51b815260206004820152602860248201527f455243313135353a204552433131353552656365697665722072656a656374656044820152676420746f6b656e7360c01b606482015260840161033e565b80356001600160a01b03811681146103bc57600080fd5b600082601f83011261148e578081fd5b8135602061149b82611a7b565b6040516114a88282611b4d565b8381528281019150858301600585901b870184018810156114c7578586fd5b855b858110156114e5578135845292840192908401906001016114c9565b5090979650505050505050565b600082601f830112611502578081fd5b813567ffffffffffffffff81111561151c5761151c611bd5565b604051611533601f8301601f191660200182611b4d565b818152846020838601011115611547578283fd5b816020850160208301379081016020019190915292915050565b600060208284031215611572578081fd5b61157b82611467565b9392505050565b60008060408385031215611594578081fd5b61159d83611467565b91506115ab60208401611467565b90509250929050565b600080600080600060a086880312156115cb578081fd5b6115d486611467565b94506115e260208701611467565b9350604086013567ffffffffffffffff808211156115fe578283fd5b61160a89838a0161147e565b9450606088013591508082111561161f578283fd5b61162b89838a0161147e565b93506080880135915080821115611640578283fd5b5061164d888289016114f2565b9150509295509295909350565b600080600080600060a08688031215611671578081fd5b61167a86611467565b945061168860208701611467565b93506040860135925060608601359150608086013567ffffffffffffffff8111156116b1578182fd5b61164d888289016114f2565b600080604083850312156116cf578182fd5b6116d883611467565b9150602083013580151581146116ec578182fd5b809150509250929050565b60008060408385031215611709578182fd5b61171283611467565b946020939093013593505050565b60008060408385031215611732578182fd5b823567ffffffffffffffff80821115611749578384fd5b818501915085601f83011261175c578384fd5b8135602061176982611a7b565b6040516117768282611b4d565b8381528281019150858301600585901b870184018b1015611795578889fd5b8896505b848710156117be576117aa81611467565b835260019690960195918301918301611799565b50965050860135925050808211156117d4578283fd5b506117e18582860161147e565b9150509250929050565b6000602082840312156117fc578081fd5b813561157b81611c94565b600060208284031215611818578081fd5b815161157b81611c94565b600060208284031215611834578081fd5b5035919050565b6000815180845260208085019450808401835b8381101561186a5781518752958201959082019060010161184e565b509495945050505050565b6000815180845261188d816020860160208601611ae2565b601f01601f19169290920160200192915050565b600081516118b3818560208601611ae2565b9290920192915050565b600080845482600182811c9150808316806118d957607f831692505b60208084108214156118f957634e487b7160e01b87526022600452602487fd5b81801561190d576001811461191e5761194a565b60ff1986168952848901965061194a565b60008b815260209020885b868110156119425781548b820152908501908301611929565b505084890196505b50505050505061198661195d82866118a1565b7f2e6a736f6e000000000000000000000000000000000000000000000000000000815260050190565b95945050505050565b60006001600160a01b03808816835280871660208401525060a060408301526119bb60a083018661183b565b82810360608401526119cd818661183b565b905082810360808401526119e18185611875565b98975050505050505050565b60006001600160a01b03808816835280871660208401525084604083015283606083015260a06080830152611a2560a0830184611875565b979650505050505050565b60006020825261157b602083018461183b565b600060408252611a56604083018561183b565b8281036020840152611986818561183b565b60006020825261157b6020830184611875565b600067ffffffffffffffff821115611a9557611a95611bd5565b5060051b60200190565b60008219821115611ab257611ab2611ba9565b500190565b600082611ac657611ac6611bbf565b500490565b600082821015611add57611add611ba9565b500390565b60005b83811015611afd578181015183820152602001611ae5565b83811115611b0c576000848401525b50505050565b600181811c90821680611b2657607f821691505b60208210811415611b4757634e487b7160e01b600052602260045260246000fd5b50919050565b601f8201601f1916810167ffffffffffffffff81118282101715611b7357611b73611bd5565b6040525050565b6000600019821415611b8e57611b8e611ba9565b5060010190565b600082611ba457611ba4611bbf565b500690565b634e487b7160e01b600052601160045260246000fd5b634e487b7160e01b600052601260045260246000fd5b634e487b7160e01b600052604160045260246000fd5b600060033d111561071357600481823e5160e01c90565b600060443d1015611c1257610713565b6040516003193d81016004833e81513d67ffffffffffffffff8160248401118184111715611c44575050505050610713565b8285019150815181811115611c5e57505050505050610713565b843d8701016020828501011115611c7a57505050505050610713565b611c8960208286010187611b4d565b509094505050505090565b6001600160e01b0319811681146107df57600080fdfea2646970667358221220ee09d88768838c44210967309fa68dd2c4f9f3d6714c5cea1a063a876cac0ad064736f6c63430008030033a26469706673582212204542421f28aefef3b7b57bb3aae93da8beb29b0cc71a651922b36ec7de48df8964736f6c63430008030033",
  "linkReferences": {},
  "deployedLinkReferences": {}
}