{
  "_format": "hh-sol-artifact-1",
  "contractName": "ERC1155Holder",
  "sourceName": "@openzeppelin/contracts/token/ERC1155/utils/ERC1155Holder.sol",
  "abi": [
    {
      "inputs": [
        {
          "internalType": "address",
          "name": "",
          "type": "address"
        },
        {
          "internalType": "address",
          "name": "",
          "type": "address"
        },
        {
          "internalType": "uint256[]",
          "name": "",
          "type": "uint256[]"
        },
        {
          "internalType": "uint256[]",
          "name": "",
          "type": "uint256[]"
        },
        {
          "internalType": "bytes",
          "name": "",
          "type": "bytes"
        }
      ],
      "name": "onERC1155BatchReceived",
      "outputs": [
        {
          "internalType": "bytes4",
          "name": "",
          "type": "bytes4"
        }
      ],
      "stateMutability": "nonpayable",
      "type": "function"
    },
    {
      "inputs": [
        {
          "internalType": "address",
          "name": "",
          "type": "address"
        },
        {
          "internalType": "address",
          "name": "",
          "type": "address"
        },
        {
          "internalType": "uint256",
          "name": "",
          "type": "uint256"
        },
        {
          "internalType": "uint256",
          "name": "",
          "type": "uint256"
        },
        {
          "internalType": "bytes",
          "name": "",
          "type": "bytes"
        }
      ],
      "name": "onERC1155Received",
      "outputs": [
        {
          "internalType": "bytes4",
          "name": "",
          "type": "bytes4"
        }
      ],
      "stateMutability": "nonpayable",
      "type": "function"
    },
    {
      "inputs": [
        {
          "internalType": "bytes4",
          "name": "interfaceId",
          "type": "bytes4"
        }
      ],
      "name": "supportsInterface",
      "outputs": [
        {
          "internalType": "bool",
          "name": "",
          "type": "bool"
        }
      ],
      "stateMutability": "view",
      "type": "function"
    }
  ],
  "bytecode": "0x608060405234801561001057600080fd5b506103c5806100206000396000f3fe608060405234801561001057600080fd5b50600436106100415760003560e01c806301ffc9a714610046578063bc197c811461006e578063f23a6e61146100a6575b600080fd5b610059610054366004610319565b6100c5565b60405190151581526020015b60405180910390f35b61008d61007c366004610210565b63bc197c8160e01b95945050505050565b6040516001600160e01b03199091168152602001610065565b61008d6100b43660046102b6565b63f23a6e6160e01b95945050505050565b60006001600160e01b03198216630271189760e51b14806100f657506301ffc9a760e01b6001600160e01b03198316145b90505b919050565b803573ffffffffffffffffffffffffffffffffffffffff811681146100f957600080fd5b600082601f830112610132578081fd5b8135602067ffffffffffffffff82111561014e5761014e610379565b8160051b61015d828201610348565b838152828101908684018388018501891015610177578687fd5b8693505b8584101561019957803583526001939093019291840191840161017b565b50979650505050505050565b600082601f8301126101b5578081fd5b813567ffffffffffffffff8111156101cf576101cf610379565b6101e2601f8201601f1916602001610348565b8181528460208386010111156101f6578283fd5b816020850160208301379081016020019190915292915050565b600080600080600060a08688031215610227578081fd5b610230866100fe565b945061023e602087016100fe565b9350604086013567ffffffffffffffff8082111561025a578283fd5b61026689838a01610122565b9450606088013591508082111561027b578283fd5b61028789838a01610122565b9350608088013591508082111561029c578283fd5b506102a9888289016101a5565b9150509295509295909350565b600080600080600060a086880312156102cd578081fd5b6102d6866100fe565b94506102e4602087016100fe565b93506040860135925060608601359150608086013567ffffffffffffffff81111561030d578182fd5b6102a9888289016101a5565b60006020828403121561032a578081fd5b81356001600160e01b031981168114610341578182fd5b9392505050565b604051601f8201601f1916810167ffffffffffffffff8111828210171561037157610371610379565b604052919050565b634e487b7160e01b600052604160045260246000fdfea26469706673582212200341973635023c9efabd8131db1d418cbab52cafde70cdd1e3310a94d5888cf664736f6c63430008030033",
  "linkReferences": {},
  "deployedLinkReferences": {}
}