{
  "_format": "hh-sol-artifact-1",
  "contractName": "SecondaryCollection",
  "sourceName": "contracts/SecondaryCollection.sol",
  "abi": [
    {
      "inputs": [
        {
          "internalType": "string",
          "name": "_name",
          "type": "string"
        },
        {
          "internalType": "string",
          "name": "_symbol",
          "type": "string"
        },
        {
          "internalType": "address",
          "name": "_libraryAddress",
          "type": "address"
        }
      ],
      "stateMutability": "nonpayable",
      "type": "constructor"
    },
    {
      "anonymous": false,
      "inputs": [
        {
          "indexed": true,
          "internalType": "address",
          "name": "owner",
          "type": "address"
        },
        {
          "indexed": true,
          "internalType": "address",
          "name": "approved",
          "type": "address"
        },
        {
          "indexed": true,
          "internalType": "uint256",
          "name": "tokenId",
          "type": "uint256"
        }
      ],
      "name": "Approval",
      "type": "event"
    },
    {
      "anonymous": false,
      "inputs": [
        {
          "indexed": true,
          "internalType": "address",
          "name": "owner",
          "type": "address"
        },
        {
          "indexed": true,
          "internalType": "address",
          "name": "operator",
          "type": "address"
        },
        {
          "indexed": false,
          "internalType": "bool",
          "name": "approved",
          "type": "bool"
        }
      ],
      "name": "ApprovalForAll",
      "type": "event"
    },
    {
      "anonymous": false,
      "inputs": [
        {
          "indexed": true,
          "internalType": "address",
          "name": "from",
          "type": "address"
        },
        {
          "indexed": true,
          "internalType": "address",
          "name": "to",
          "type": "address"
        },
        {
          "indexed": true,
          "internalType": "uint256",
          "name": "tokenId",
          "type": "uint256"
        }
      ],
      "name": "Transfer",
      "type": "event"
    },
    {
      "inputs": [
        {
          "internalType": "address",
          "name": "to",
          "type": "address"
        },
        {
          "internalType": "uint256",
          "name": "tokenId",
          "type": "uint256"
        }
      ],
      "name": "approve",
      "outputs": [],
      "stateMutability": "nonpayable",
      "type": "function"
    },
    {
      "inputs": [
        {
          "internalType": "address",
          "name": "owner",
          "type": "address"
        }
      ],
      "name": "balanceOf",
      "outputs": [
        {
          "internalType": "uint256",
          "name": "",
          "type": "uint256"
        }
      ],
      "stateMutability": "view",
      "type": "function"
    },
    {
      "inputs": [
        {
          "internalType": "uint256",
          "name": "tokenId",
          "type": "uint256"
        }
      ],
      "name": "getApproved",
      "outputs": [
        {
          "internalType": "address",
          "name": "",
          "type": "address"
        }
      ],
      "stateMutability": "view",
      "type": "function"
    },
    {
      "inputs": [
        {
          "internalType": "address",
          "name": "owner",
          "type": "address"
        },
        {
          "internalType": "address",
          "name": "operator",
          "type": "address"
        }
      ],
      "name": "isApprovedForAll",
      "outputs": [
        {
          "internalType": "bool",
          "name": "",
          "type": "bool"
        }
      ],
      "stateMutability": "view",
      "type": "function"
    },
    {
      "inputs": [],
      "name": "libraryAddress",
      "outputs": [
        {
          "internalType": "address",
          "name": "",
          "type": "address"
        }
      ],
      "stateMutability": "view",
      "type": "function"
    },
    {
      "inputs": [
        {
          "internalType": "string",
          "name": "_tokenURI",
          "type": "string"
        }
      ],
      "name": "mint",
      "outputs": [
        {
          "internalType": "uint256",
          "name": "",
          "type": "uint256"
        }
      ],
      "stateMutability": "nonpayable",
      "type": "function"
    },
    {
      "inputs": [],
      "name": "name",
      "outputs": [
        {
          "internalType": "string",
          "name": "",
          "type": "string"
        }
      ],
      "stateMutability": "view",
      "type": "function"
    },
    {
      "inputs": [
        {
          "internalType": "uint256",
          "name": "tokenId",
          "type": "uint256"
        }
      ],
      "name": "ownerOf",
      "outputs": [
        {
          "internalType": "address",
          "name": "",
          "type": "address"
        }
      ],
      "stateMutability": "view",
      "type": "function"
    },
    {
      "inputs": [
        {
          "internalType": "address",
          "name": "from",
          "type": "address"
        },
        {
          "internalType": "address",
          "name": "to",
          "type": "address"
        },
        {
          "internalType": "uint256",
          "name": "tokenId",
          "type": "uint256"
        }
      ],
      "name": "safeTransferFrom",
      "outputs": [],
      "stateMutability": "nonpayable",
      "type": "function"
    },
    {
      "inputs": [
        {
          "internalType": "address",
          "name": "from",
          "type": "address"
        },
        {
          "internalType": "address",
          "name": "to",
          "type": "address"
        },
        {
          "internalType": "uint256",
          "name": "tokenId",
          "type": "uint256"
        },
        {
          "internalType": "bytes",
          "name": "_data",
          "type": "bytes"
        }
      ],
      "name": "safeTransferFrom",
      "outputs": [],
      "stateMutability": "nonpayable",
      "type": "function"
    },
    {
      "inputs": [
        {
          "internalType": "address",
          "name": "operator",
          "type": "address"
        },
        {
          "internalType": "bool",
          "name": "approved",
          "type": "bool"
        }
      ],
      "name": "setApprovalForAll",
      "outputs": [],
      "stateMutability": "nonpayable",
      "type": "function"
    },
    {
      "inputs": [
        {
          "internalType": "bytes4",
          "name": "interfaceId",
          "type": "bytes4"
        }
      ],
      "name": "supportsInterface",
      "outputs": [
        {
          "internalType": "bool",
          "name": "",
          "type": "bool"
        }
      ],
      "stateMutability": "view",
      "type": "function"
    },
    {
      "inputs": [],
      "name": "symbol",
      "outputs": [
        {
          "internalType": "string",
          "name": "",
          "type": "string"
        }
      ],
      "stateMutability": "view",
      "type": "function"
    },
    {
      "inputs": [
        {
          "internalType": "uint256",
          "name": "tokenId",
          "type": "uint256"
        }
      ],
      "name": "tokenURI",
      "outputs": [
        {
          "internalType": "string",
          "name": "",
          "type": "string"
        }
      ],
      "stateMutability": "view",
      "type": "function"
    },
    {
      "inputs": [
        {
          "internalType": "address",
          "name": "from",
          "type": "address"
        },
        {
          "internalType": "address",
          "name": "to",
          "type": "address"
        },
        {
          "internalType": "uint256",
          "name": "tokenId",
          "type": "uint256"
        }
      ],
      "name": "transferFrom",
      "outputs": [],
      "stateMutability": "nonpayable",
      "type": "function"
    }
  ],
  "bytecode": "0x60806040523480156200001157600080fd5b5060405162001b6c38038062001b6c8339810160408190526200003491620001e9565b8251839083906200004d90600090602085019062000090565b5080516200006390600190602084019062000090565b5050600880546001600160a01b0319166001600160a01b03939093169290921790915550620002c5915050565b8280546200009e9062000272565b90600052602060002090601f016020900481019282620000c257600085556200010d565b82601f10620000dd57805160ff19168380011785556200010d565b828001600101855582156200010d579182015b828111156200010d578251825591602001919060010190620000f0565b506200011b9291506200011f565b5090565b5b808211156200011b576000815560010162000120565b600082601f83011262000147578081fd5b81516001600160401b0380821115620001645762000164620002af565b604051601f8301601f19908116603f011681019082821181831017156200018f576200018f620002af565b81604052838152602092508683858801011115620001ab578485fd5b8491505b83821015620001ce5785820183015181830184015290820190620001af565b83821115620001df57848385830101525b9695505050505050565b600080600060608486031215620001fe578283fd5b83516001600160401b038082111562000215578485fd5b620002238783880162000136565b9450602086015191508082111562000239578384fd5b50620002488682870162000136565b604086015190935090506001600160a01b038116811462000267578182fd5b809150509250925092565b600181811c908216806200028757607f821691505b60208210811415620002a957634e487b7160e01b600052602260045260246000fd5b50919050565b634e487b7160e01b600052604160045260246000fd5b61189780620002d56000396000f3fe608060405234801561001057600080fd5b50600436106100f55760003560e01c806370a0823111610097578063b88d4fde11610066578063b88d4fde146101ff578063c87b56dd14610212578063d85d3d2714610225578063e985e9c514610238576100f5565b806370a08231146101b057806395d89b41146101d1578063a22cb465146101d9578063b816f513146101ec576100f5565b8063095ea7b3116100d3578063095ea7b31461016257806323b872dd1461017757806342842e0e1461018a5780636352211e1461019d576100f5565b806301ffc9a7146100fa57806306fdde0314610122578063081812fc14610137575b600080fd5b61010d6101083660046115ed565b610274565b60405190151581526020015b60405180910390f35b61012a6102c8565b604051610119919061171a565b61014a61014536600461166b565b61035a565b6040516001600160a01b039091168152602001610119565b6101756101703660046115c4565b6103f4565b005b6101756101853660046114d6565b61050a565b6101756101983660046114d6565b610591565b61014a6101ab36600461166b565b6105ac565b6101c36101be36600461148a565b610637565b604051908152602001610119565b61012a6106d1565b6101756101e736600461158a565b6106e0565b60085461014a906001600160a01b031681565b61017561020d366004611511565b6106ef565b61012a61022036600461166b565b61077d565b6101c3610233366004611625565b610911565b61010d6102463660046114a4565b6001600160a01b03918216600090815260056020908152604080832093909416825291909152205460ff1690565b60006001600160e01b031982166380ac58cd60e01b14806102a557506001600160e01b03198216635b5e139f60e01b145b806102c057506301ffc9a760e01b6001600160e01b03198316145b90505b919050565b6060600080546102d79061179c565b80601f01602080910402602001604051908101604052809291908181526020018280546103039061179c565b80156103505780601f1061032557610100808354040283529160200191610350565b820191906000526020600020905b81548152906001019060200180831161033357829003601f168201915b5050505050905090565b6000818152600260205260408120546001600160a01b03166103d85760405162461bcd60e51b815260206004820152602c60248201527f4552433732313a20617070726f76656420717565727920666f72206e6f6e657860448201526b34b9ba32b73a103a37b5b2b760a11b60648201526084015b60405180910390fd5b506000908152600460205260409020546001600160a01b031690565b60006103ff826105ac565b9050806001600160a01b0316836001600160a01b0316141561046d5760405162461bcd60e51b815260206004820152602160248201527f4552433732313a20617070726f76616c20746f2063757272656e74206f776e656044820152603960f91b60648201526084016103cf565b336001600160a01b038216148061048957506104898133610246565b6104fb5760405162461bcd60e51b815260206004820152603860248201527f4552433732313a20617070726f76652063616c6c6572206973206e6f74206f7760448201527f6e6572206e6f7220617070726f76656420666f7220616c6c000000000000000060648201526084016103cf565b6105058383610959565b505050565b61051433826109d4565b6105865760405162461bcd60e51b815260206004820152603160248201527f4552433732313a207472616e736665722063616c6c6572206973206e6f74206f60448201527f776e6572206e6f7220617070726f76656400000000000000000000000000000060648201526084016103cf565b610505838383610ac7565b610505838383604051806020016040528060008152506106ef565b6000818152600260205260408120546001600160a01b0316806102c05760405162461bcd60e51b815260206004820152602960248201527f4552433732313a206f776e657220717565727920666f72206e6f6e657869737460448201527f656e7420746f6b656e000000000000000000000000000000000000000000000060648201526084016103cf565b60006001600160a01b0382166106b55760405162461bcd60e51b815260206004820152602a60248201527f4552433732313a2062616c616e636520717565727920666f7220746865207a6560448201527f726f20616464726573730000000000000000000000000000000000000000000060648201526084016103cf565b506001600160a01b031660009081526003602052604090205490565b6060600180546102d79061179c565b6106eb338383610c88565b5050565b6106f933836109d4565b61076b5760405162461bcd60e51b815260206004820152603160248201527f4552433732313a207472616e736665722063616c6c6572206973206e6f74206f60448201527f776e6572206e6f7220617070726f76656400000000000000000000000000000060648201526084016103cf565b61077784848484610d57565b50505050565b6000818152600260205260409020546060906001600160a01b031661080a5760405162461bcd60e51b815260206004820152603160248201527f45524337323155524953746f726167653a2055524920717565727920666f722060448201527f6e6f6e6578697374656e7420746f6b656e00000000000000000000000000000060648201526084016103cf565b600082815260066020526040812080546108239061179c565b80601f016020809104026020016040519081016040528092919081815260200182805461084f9061179c565b801561089c5780601f106108715761010080835404028352916020019161089c565b820191906000526020600020905b81548152906001019060200180831161087f57829003601f168201915b5050505050905060006108ba60408051602081019091526000815290565b90508051600014156108ce575090506102c3565b8151156109005780826040516020016108e89291906116af565b604051602081830303815290604052925050506102c3565b61090984610de0565b949350505050565b6000610921600780546001019055565b600061092c60075490565b90506109383382610ed6565b6109428184611025565b6008546102c0906001600160a01b031660016106e0565b6000818152600460205260409020805473ffffffffffffffffffffffffffffffffffffffff19166001600160a01b038416908117909155819061099b826105ac565b6001600160a01b03167f8c5be1e5ebec7d5bd14f71427d1e84f3dd0314c0f7b2291e5b200ac8c7c3b92560405160405180910390a45050565b6000818152600260205260408120546001600160a01b0316610a4d5760405162461bcd60e51b815260206004820152602c60248201527f4552433732313a206f70657261746f7220717565727920666f72206e6f6e657860448201526b34b9ba32b73a103a37b5b2b760a11b60648201526084016103cf565b6000610a58836105ac565b9050806001600160a01b0316846001600160a01b03161480610a935750836001600160a01b0316610a888461035a565b6001600160a01b0316145b8061090957506001600160a01b0380821660009081526005602090815260408083209388168352929052205460ff16610909565b826001600160a01b0316610ada826105ac565b6001600160a01b031614610b565760405162461bcd60e51b815260206004820152602960248201527f4552433732313a207472616e73666572206f6620746f6b656e2074686174206960448201527f73206e6f74206f776e000000000000000000000000000000000000000000000060648201526084016103cf565b6001600160a01b038216610bb85760405162461bcd60e51b8152602060048201526024808201527f4552433732313a207472616e7366657220746f20746865207a65726f206164646044820152637265737360e01b60648201526084016103cf565b610bc3600082610959565b6001600160a01b0383166000908152600360205260408120805460019290610bec908490611759565b90915550506001600160a01b0382166000908152600360205260408120805460019290610c1a90849061172d565b9091555050600081815260026020526040808220805473ffffffffffffffffffffffffffffffffffffffff19166001600160a01b0386811691821790925591518493918716917fddf252ad1be2c89b69c2b068fc378daa952ba7f163c4a11628f55a4df523b3ef91a4505050565b816001600160a01b0316836001600160a01b03161415610cea5760405162461bcd60e51b815260206004820152601960248201527f4552433732313a20617070726f766520746f2063616c6c65720000000000000060448201526064016103cf565b6001600160a01b03838116600081815260056020908152604080832094871680845294825291829020805460ff191686151590811790915591519182527f17307eab39ab6107e8899845ad3d59bd9653f200f220920489ca2b5937696c31910160405180910390a3505050565b610d62848484610ac7565b610d6e848484846110ce565b6107775760405162461bcd60e51b815260206004820152603260248201527f4552433732313a207472616e7366657220746f206e6f6e20455243373231526560448201527f63656976657220696d706c656d656e746572000000000000000000000000000060648201526084016103cf565b6000818152600260205260409020546060906001600160a01b0316610e6d5760405162461bcd60e51b815260206004820152602f60248201527f4552433732314d657461646174613a2055524920717565727920666f72206e6f60448201527f6e6578697374656e7420746f6b656e000000000000000000000000000000000060648201526084016103cf565b6000610e8460408051602081019091526000815290565b90506000815111610ea45760405180602001604052806000815250610ecf565b80610eae84611231565b604051602001610ebf9291906116af565b6040516020818303038152906040525b9392505050565b6001600160a01b038216610f2c5760405162461bcd60e51b815260206004820181905260248201527f4552433732313a206d696e7420746f20746865207a65726f206164647265737360448201526064016103cf565b6000818152600260205260409020546001600160a01b031615610f915760405162461bcd60e51b815260206004820152601c60248201527f4552433732313a20746f6b656e20616c7265616479206d696e7465640000000060448201526064016103cf565b6001600160a01b0382166000908152600360205260408120805460019290610fba90849061172d565b9091555050600081815260026020526040808220805473ffffffffffffffffffffffffffffffffffffffff19166001600160a01b03861690811790915590518392907fddf252ad1be2c89b69c2b068fc378daa952ba7f163c4a11628f55a4df523b3ef908290a45050565b6000828152600260205260409020546001600160a01b03166110af5760405162461bcd60e51b815260206004820152602e60248201527f45524337323155524953746f726167653a2055524920736574206f66206e6f6e60448201527f6578697374656e7420746f6b656e00000000000000000000000000000000000060648201526084016103cf565b6000828152600660209081526040909120825161050592840190611364565b60006001600160a01b0384163b1561122657604051630a85bd0160e11b81526001600160a01b0385169063150b7a02906111129033908990889088906004016116de565b602060405180830381600087803b15801561112c57600080fd5b505af192505050801561115c575060408051601f3d908101601f1916820190925261115991810190611609565b60015b61120c573d80801561118a576040519150601f19603f3d011682016040523d82523d6000602084013e61118f565b606091505b5080516112045760405162461bcd60e51b815260206004820152603260248201527f4552433732313a207472616e7366657220746f206e6f6e20455243373231526560448201527f63656976657220696d706c656d656e746572000000000000000000000000000060648201526084016103cf565b805181602001fd5b6001600160e01b031916630a85bd0160e11b149050610909565b506001949350505050565b60608161125657506040805180820190915260018152600360fc1b60208201526102c3565b8160005b8115611280578061126a816117d7565b91506112799050600a83611745565b915061125a565b60008167ffffffffffffffff8111156112a957634e487b7160e01b600052604160045260246000fd5b6040519080825280601f01601f1916602001820160405280156112d3576020820181803683370190505b5090505b8415610909576112e8600183611759565b91506112f5600a866117f2565b61130090603061172d565b60f81b81838151811061132357634e487b7160e01b600052603260045260246000fd5b60200101907effffffffffffffffffffffffffffffffffffffffffffffffffffffffffffff1916908160001a90535061135d600a86611745565b94506112d7565b8280546113709061179c565b90600052602060002090601f01602090048101928261139257600085556113d8565b82601f106113ab57805160ff19168380011785556113d8565b828001600101855582156113d8579182015b828111156113d85782518255916020019190600101906113bd565b506113e49291506113e8565b5090565b5b808211156113e457600081556001016113e9565b600067ffffffffffffffff8084111561141857611418611832565b604051601f8501601f19908116603f0116810190828211818310171561144057611440611832565b8160405280935085815286868601111561145957600080fd5b858560208301376000602087830101525050509392505050565b80356001600160a01b03811681146102c357600080fd5b60006020828403121561149b578081fd5b610ecf82611473565b600080604083850312156114b6578081fd5b6114bf83611473565b91506114cd60208401611473565b90509250929050565b6000806000606084860312156114ea578081fd5b6114f384611473565b925061150160208501611473565b9150604084013590509250925092565b60008060008060808587031215611526578081fd5b61152f85611473565b935061153d60208601611473565b925060408501359150606085013567ffffffffffffffff81111561155f578182fd5b8501601f8101871361156f578182fd5b61157e878235602084016113fd565b91505092959194509250565b6000806040838503121561159c578182fd5b6115a583611473565b9150602083013580151581146115b9578182fd5b809150509250929050565b600080604083850312156115d6578182fd5b6115df83611473565b946020939093013593505050565b6000602082840312156115fe578081fd5b8135610ecf81611848565b60006020828403121561161a578081fd5b8151610ecf81611848565b600060208284031215611636578081fd5b813567ffffffffffffffff81111561164c578182fd5b8201601f8101841361165c578182fd5b610909848235602084016113fd565b60006020828403121561167c578081fd5b5035919050565b6000815180845261169b816020860160208601611770565b601f01601f19169290920160200192915050565b600083516116c1818460208801611770565b8351908301906116d5818360208801611770565b01949350505050565b60006001600160a01b038087168352808616602084015250836040830152608060608301526117106080830184611683565b9695505050505050565b600060208252610ecf6020830184611683565b6000821982111561174057611740611806565b500190565b6000826117545761175461181c565b500490565b60008282101561176b5761176b611806565b500390565b60005b8381101561178b578181015183820152602001611773565b838111156107775750506000910152565b600181811c908216806117b057607f821691505b602082108114156117d157634e487b7160e01b600052602260045260246000fd5b50919050565b60006000198214156117eb576117eb611806565b5060010190565b6000826118015761180161181c565b500690565b634e487b7160e01b600052601160045260246000fd5b634e487b7160e01b600052601260045260246000fd5b634e487b7160e01b600052604160045260246000fd5b6001600160e01b03198116811461185e57600080fd5b5056fea26469706673582212207f5adc3366b8481622ba7ab8bfe49799c72c02fb31def2a313d53b06e64cb8ee64736f6c63430008030033",
  "linkReferences": {},
  "deployedLinkReferences": {}
}